{
  "_format": "hh-sol-artifact-1",
  "contractName": "NFTMarketplace",
  "sourceName": "contracts/NFTMarketplace.sol",
  "abi": [
    {
      "inputs": [],
      "stateMutability": "nonpayable",
      "type": "constructor"
    },
    {
      "anonymous": false,
      "inputs": [
        {
          "indexed": true,
          "internalType": "address",
          "name": "owner",
          "type": "address"
        },
        {
          "indexed": true,
          "internalType": "address",
          "name": "approved",
          "type": "address"
        },
        {
          "indexed": true,
          "internalType": "uint256",
          "name": "tokenId",
          "type": "uint256"
        }
      ],
      "name": "Approval",
      "type": "event"
    },
    {
      "anonymous": false,
      "inputs": [
        {
          "indexed": true,
          "internalType": "address",
          "name": "owner",
          "type": "address"
        },
        {
          "indexed": true,
          "internalType": "address",
          "name": "operator",
          "type": "address"
        },
        {
          "indexed": false,
          "internalType": "bool",
          "name": "approved",
          "type": "bool"
        }
      ],
      "name": "ApprovalForAll",
      "type": "event"
    },
    {
      "anonymous": false,
      "inputs": [
        {
          "indexed": false,
          "internalType": "uint256",
          "name": "auctionId",
          "type": "uint256"
        },
        {
          "indexed": true,
          "internalType": "address",
          "name": "nftContract",
          "type": "address"
        },
        {
          "indexed": true,
          "internalType": "uint256",
          "name": "tokenId",
          "type": "uint256"
        },
        {
          "indexed": false,
          "internalType": "address",
          "name": "seller",
          "type": "address"
        },
        {
          "indexed": false,
          "internalType": "uint256",
          "name": "startingPrice",
          "type": "uint256"
        },
        {
          "indexed": false,
          "internalType": "uint256",
          "name": "startTime",
          "type": "uint256"
        },
        {
          "indexed": false,
          "internalType": "uint256",
          "name": "endTime",
          "type": "uint256"
        }
      ],
      "name": "AuctionCreated",
      "type": "event"
    },
    {
      "anonymous": false,
      "inputs": [
        {
          "indexed": false,
          "internalType": "uint256",
          "name": "tokenId",
          "type": "uint256"
        }
      ],
      "name": "AuctionDeleted",
      "type": "event"
    },
    {
      "anonymous": false,
      "inputs": [
        {
          "indexed": true,
          "internalType": "uint256",
          "name": "auctionId",
          "type": "uint256"
        },
        {
          "indexed": true,
          "internalType": "address",
          "name": "winner",
          "type": "address"
        },
        {
          "indexed": false,
          "internalType": "uint256",
          "name": "finalAmount",
          "type": "uint256"
        }
      ],
      "name": "AuctionFinalized",
      "type": "event"
    },
    {
      "anonymous": false,
      "inputs": [
        {
          "indexed": false,
          "internalType": "uint256",
          "name": "_fromTokenId",
          "type": "uint256"
        },
        {
          "indexed": false,
          "internalType": "uint256",
          "name": "_toTokenId",
          "type": "uint256"
        }
      ],
      "name": "BatchMetadataUpdate",
      "type": "event"
    },
    {
      "anonymous": false,
      "inputs": [
        {
          "indexed": true,
          "internalType": "uint256",
          "name": "auctionId",
          "type": "uint256"
        },
        {
          "indexed": true,
          "internalType": "address",
          "name": "bidder",
          "type": "address"
        },
        {
          "indexed": false,
          "internalType": "uint256",
          "name": "bidAmount",
          "type": "uint256"
        }
      ],
      "name": "BidPlaced",
      "type": "event"
    },
    {
      "anonymous": false,
      "inputs": [
        {
          "indexed": false,
          "internalType": "uint256",
          "name": "tokenId",
          "type": "uint256"
        },
        {
          "indexed": false,
          "internalType": "address",
          "name": "seller",
          "type": "address"
        },
        {
          "indexed": false,
          "internalType": "uint256",
          "name": "price",
          "type": "uint256"
        }
      ],
      "name": "MarketItemCreated",
      "type": "event"
    },
    {
      "anonymous": false,
      "inputs": [
        {
          "indexed": false,
          "internalType": "uint256",
          "name": "tokenId",
          "type": "uint256"
        }
      ],
      "name": "MarketItemDeleted",
      "type": "event"
    },
    {
      "anonymous": false,
      "inputs": [
        {
          "indexed": false,
          "internalType": "uint256",
          "name": "_tokenId",
          "type": "uint256"
        }
      ],
      "name": "MetadataUpdate",
      "type": "event"
    },
    {
      "anonymous": false,
      "inputs": [
        {
          "indexed": false,
          "internalType": "uint256",
          "name": "tokenId",
          "type": "uint256"
        },
        {
          "indexed": false,
          "internalType": "address",
          "name": "buyer",
          "type": "address"
        },
        {
          "indexed": false,
          "internalType": "uint256",
          "name": "price",
          "type": "uint256"
        }
      ],
      "name": "TokenBought",
      "type": "event"
    },
    {
      "anonymous": false,
      "inputs": [
        {
          "indexed": true,
          "internalType": "address",
          "name": "from",
          "type": "address"
        },
        {
          "indexed": true,
          "internalType": "address",
          "name": "to",
          "type": "address"
        },
        {
          "indexed": true,
          "internalType": "uint256",
          "name": "tokenId",
          "type": "uint256"
        }
      ],
      "name": "Transfer",
      "type": "event"
    },
    {
      "anonymous": false,
      "inputs": [
        {
          "indexed": false,
          "internalType": "uint256",
          "name": "tokenId",
          "type": "uint256"
        },
        {
          "indexed": false,
          "internalType": "string",
          "name": "title",
          "type": "string"
        },
        {
          "indexed": false,
          "internalType": "string",
          "name": "Description",
          "type": "string"
        },
        {
          "indexed": false,
          "internalType": "address payable",
          "name": "owner",
          "type": "address"
        },
        {
          "indexed": false,
          "internalType": "bool",
          "name": "show",
          "type": "bool"
        }
      ],
      "name": "createListMyNFT",
      "type": "event"
    },
    {
      "anonymous": false,
      "inputs": [
        {
          "indexed": false,
          "internalType": "uint256",
          "name": "tokenId",
          "type": "uint256"
        },
        {
          "indexed": false,
          "internalType": "string",
          "name": "title",
          "type": "string"
        },
        {
          "indexed": false,
          "internalType": "string",
          "name": "Description",
          "type": "string"
        },
        {
          "indexed": false,
          "internalType": "address payable",
          "name": "owner",
          "type": "address"
        },
        {
          "indexed": false,
          "internalType": "bool",
          "name": "show",
          "type": "bool"
        }
      ],
      "name": "updateListMyNFT",
      "type": "event"
    },
    {
      "inputs": [
        {
          "internalType": "uint256",
          "name": "tokenId",
          "type": "uint256"
        },
        {
          "internalType": "bool",
          "name": "show",
          "type": "bool"
        }
      ],
      "name": "ShowOnOrOffNFT",
      "outputs": [],
      "stateMutability": "nonpayable",
      "type": "function"
    },
    {
      "inputs": [
        {
          "internalType": "address",
          "name": "to",
          "type": "address"
        },
        {
          "internalType": "uint256",
          "name": "tokenId",
          "type": "uint256"
        }
      ],
      "name": "approve",
      "outputs": [],
      "stateMutability": "nonpayable",
      "type": "function"
    },
    {
      "inputs": [
        {
          "internalType": "address",
          "name": "owner",
          "type": "address"
        }
      ],
      "name": "balanceOf",
      "outputs": [
        {
          "internalType": "uint256",
          "name": "",
          "type": "uint256"
        }
      ],
      "stateMutability": "view",
      "type": "function"
    },
    {
      "inputs": [
        {
          "internalType": "uint256",
          "name": "tokenId",
          "type": "uint256"
        }
      ],
      "name": "buyNFT",
      "outputs": [],
      "stateMutability": "payable",
      "type": "function"
    },
    {
      "inputs": [
        {
          "internalType": "uint256",
          "name": "tokenId",
          "type": "uint256"
        }
      ],
      "name": "cancelAuction",
      "outputs": [],
      "stateMutability": "nonpayable",
      "type": "function"
    },
    {
      "inputs": [
        {
          "internalType": "uint256",
          "name": "tokenId",
          "type": "uint256"
        }
      ],
      "name": "cancelSell",
      "outputs": [],
      "stateMutability": "nonpayable",
      "type": "function"
    },
    {
      "inputs": [
        {
          "internalType": "uint256",
          "name": "tokenId",
          "type": "uint256"
        },
        {
          "internalType": "uint256",
          "name": "startingPrice",
          "type": "uint256"
        },
        {
          "internalType": "uint256",
          "name": "startTime",
          "type": "uint256"
        },
        {
          "internalType": "uint256",
          "name": "endTime",
          "type": "uint256"
        }
      ],
      "name": "createAuction",
      "outputs": [],
      "stateMutability": "nonpayable",
      "type": "function"
    },
    {
      "inputs": [
        {
          "internalType": "uint256",
          "name": "tokenId",
          "type": "uint256"
        },
        {
          "internalType": "uint256",
          "name": "price",
          "type": "uint256"
        }
      ],
      "name": "createSell",
      "outputs": [],
      "stateMutability": "nonpayable",
      "type": "function"
    },
    {
      "inputs": [
        {
          "internalType": "string",
          "name": "tokenUrl",
          "type": "string"
        },
        {
          "internalType": "string",
          "name": "title",
          "type": "string"
        },
        {
          "internalType": "string",
          "name": "Description",
          "type": "string"
        },
        {
          "internalType": "bool",
          "name": "show",
          "type": "bool"
        }
      ],
      "name": "createToken",
      "outputs": [
        {
          "internalType": "uint256",
          "name": "",
          "type": "uint256"
        }
      ],
      "stateMutability": "payable",
      "type": "function"
    },
    {
      "inputs": [
        {
          "internalType": "uint256",
          "name": "tokenId",
          "type": "uint256"
        }
      ],
      "name": "finalizeAuction",
      "outputs": [],
      "stateMutability": "nonpayable",
      "type": "function"
    },
    {
      "inputs": [
        {
          "internalType": "uint256",
          "name": "tokenId",
          "type": "uint256"
        }
      ],
      "name": "getApproved",
      "outputs": [
        {
          "internalType": "address",
          "name": "",
          "type": "address"
        }
      ],
      "stateMutability": "view",
      "type": "function"
    },
    {
      "inputs": [
        {
          "internalType": "address",
          "name": "owner",
          "type": "address"
        },
        {
          "internalType": "address",
          "name": "operator",
          "type": "address"
        }
      ],
      "name": "isApprovedForAll",
      "outputs": [
        {
          "internalType": "bool",
          "name": "",
          "type": "bool"
        }
      ],
      "stateMutability": "view",
      "type": "function"
    },
    {
      "inputs": [],
      "name": "name",
      "outputs": [
        {
          "internalType": "string",
          "name": "",
          "type": "string"
        }
      ],
      "stateMutability": "view",
      "type": "function"
    },
    {
      "inputs": [
        {
          "internalType": "uint256",
          "name": "tokenId",
          "type": "uint256"
        }
      ],
      "name": "ownerOf",
      "outputs": [
        {
          "internalType": "address",
          "name": "",
          "type": "address"
        }
      ],
      "stateMutability": "view",
      "type": "function"
    },
    {
      "inputs": [
        {
          "internalType": "uint256",
          "name": "auctionId",
          "type": "uint256"
        }
      ],
      "name": "placeBid",
      "outputs": [],
      "stateMutability": "payable",
      "type": "function"
    },
    {
      "inputs": [
        {
          "internalType": "address",
          "name": "from",
          "type": "address"
        },
        {
          "internalType": "address",
          "name": "to",
          "type": "address"
        },
        {
          "internalType": "uint256",
          "name": "tokenId",
          "type": "uint256"
        }
      ],
      "name": "safeTransferFrom",
      "outputs": [],
      "stateMutability": "nonpayable",
      "type": "function"
    },
    {
      "inputs": [
        {
          "internalType": "address",
          "name": "from",
          "type": "address"
        },
        {
          "internalType": "address",
          "name": "to",
          "type": "address"
        },
        {
          "internalType": "uint256",
          "name": "tokenId",
          "type": "uint256"
        },
        {
          "internalType": "bytes",
          "name": "data",
          "type": "bytes"
        }
      ],
      "name": "safeTransferFrom",
      "outputs": [],
      "stateMutability": "nonpayable",
      "type": "function"
    },
    {
      "inputs": [
        {
          "internalType": "address",
          "name": "operator",
          "type": "address"
        },
        {
          "internalType": "bool",
          "name": "approved",
          "type": "bool"
        }
      ],
      "name": "setApprovalForAll",
      "outputs": [],
      "stateMutability": "nonpayable",
      "type": "function"
    },
    {
      "inputs": [
        {
          "internalType": "bytes4",
          "name": "interfaceId",
          "type": "bytes4"
        }
      ],
      "name": "supportsInterface",
      "outputs": [
        {
          "internalType": "bool",
          "name": "",
          "type": "bool"
        }
      ],
      "stateMutability": "view",
      "type": "function"
    },
    {
      "inputs": [],
      "name": "symbol",
      "outputs": [
        {
          "internalType": "string",
          "name": "",
          "type": "string"
        }
      ],
      "stateMutability": "view",
      "type": "function"
    },
    {
      "inputs": [
        {
          "internalType": "uint256",
          "name": "tokenId",
          "type": "uint256"
        }
      ],
      "name": "tokenURI",
      "outputs": [
        {
          "internalType": "string",
          "name": "",
          "type": "string"
        }
      ],
      "stateMutability": "view",
      "type": "function"
    },
    {
      "inputs": [
        {
          "internalType": "address",
          "name": "from",
          "type": "address"
        },
        {
          "internalType": "address",
          "name": "to",
          "type": "address"
        },
        {
          "internalType": "uint256",
          "name": "tokenId",
          "type": "uint256"
        }
      ],
      "name": "transferFrom",
      "outputs": [],
      "stateMutability": "nonpayable",
      "type": "function"
    }
  ],
  "bytecode": "0x608060405234801561001057600080fd5b506040518060400160405280601581526020017f4e4654204d61726b6574706c61636520546f6b656e00000000000000000000008152506040518060400160405280600481526020017f4e46544d00000000000000000000000000000000000000000000000000000000815250816000908161008c919061033d565b50806001908161009c919061033d565b505050600160078190555033600c60006101000a81548173ffffffffffffffffffffffffffffffffffffffff021916908373ffffffffffffffffffffffffffffffffffffffff16021790555061040f565b600081519050919050565b7f4e487b7100000000000000000000000000000000000000000000000000000000600052604160045260246000fd5b7f4e487b7100000000000000000000000000000000000000000000000000000000600052602260045260246000fd5b6000600282049050600182168061016e57607f821691505b60208210810361018157610180610127565b5b50919050565b60008190508160005260206000209050919050565b60006020601f8301049050919050565b600082821b905092915050565b6000600883026101e97fffffffffffffffffffffffffffffffffffffffffffffffffffffffffffffffff826101ac565b6101f386836101ac565b95508019841693508086168417925050509392505050565b6000819050919050565b6000819050919050565b600061023a6102356102308461020b565b610215565b61020b565b9050919050565b6000819050919050565b6102548361021f565b61026861026082610241565b8484546101b9565b825550505050565b600090565b61027d610270565b61028881848461024b565b505050565b5b818110156102ac576102a1600082610275565b60018101905061028e565b5050565b601f8211156102f1576102c281610187565b6102cb8461019c565b810160208510156102da578190505b6102ee6102e68561019c565b83018261028d565b50505b505050565b600082821c905092915050565b6000610314600019846008026102f6565b1980831691505092915050565b600061032d8383610303565b9150826002028217905092915050565b610346826100ed565b67ffffffffffffffff81111561035f5761035e6100f8565b5b6103698254610156565b6103748282856102b0565b600060209050601f8311600181146103a75760008415610395578287015190505b61039f8582610321565b865550610407565b601f1984166103b586610187565b60005b828110156103dd578489015182556001820191506020850194506020810190506103b8565b868310156103fa57848901516103f6601f891682610303565b8355505b6001600288020188555050505b505050505050565b6148018061041e6000396000f3fe6080604052600436106101355760003560e01c80636352211e116100ab578063a22cb4651161006f578063a22cb4651461040b578063a4144ed214610434578063b88d4fde1461045d578063c87b56dd14610486578063e8083863146104c3578063e985e9c5146104ec57610135565b80636352211e1461032157806370a082311461035e57806395d89b411461039b57806396b5a755146103c65780639979ef45146103ef57610135565b8063095ea7b3116100fd578063095ea7b31461023157806323b872dd1461025a578063251b17711461028357806342842e0e146102b3578063431f21da146102dc57806351ed82881461030557610135565b806301ffc9a71461013a578063031850db1461017757806306fdde03146101a057806307c9cd45146101cb578063081812fc146101f4575b600080fd5b34801561014657600080fd5b50610161600480360381019061015c9190612ddb565b610529565b60405161016e9190612e23565b60405180910390f35b34801561018357600080fd5b5061019e60048036038101906101999190612ea0565b61058a565b005b3480156101ac57600080fd5b506101b56106a3565b6040516101c29190612f70565b60405180910390f35b3480156101d757600080fd5b506101f260048036038101906101ed9190612f92565b610735565b005b34801561020057600080fd5b5061021b60048036038101906102169190612f92565b610892565b6040516102289190613000565b60405180910390f35b34801561023d57600080fd5b5061025860048036038101906102539190613047565b6108d8565b005b34801561026657600080fd5b50610281600480360381019061027c9190613087565b6109ef565b005b61029d6004803603810190610298919061320f565b610a4f565b6040516102aa91906132d9565b60405180910390f35b3480156102bf57600080fd5b506102da60048036038101906102d59190613087565b610bba565b005b3480156102e857600080fd5b5061030360048036038101906102fe91906132f4565b610bda565b005b61031f600480360381019061031a9190612f92565b610e3d565b005b34801561032d57600080fd5b5061034860048036038101906103439190612f92565b610f76565b6040516103559190613000565b60405180910390f35b34801561036a57600080fd5b506103856004803603810190610380919061335b565b610ffc565b60405161039291906132d9565b60405180910390f35b3480156103a757600080fd5b506103b06110b3565b6040516103bd9190612f70565b60405180910390f35b3480156103d257600080fd5b506103ed60048036038101906103e89190612f92565b611145565b005b61040960048036038101906104049190612f92565b6112e9565b005b34801561041757600080fd5b50610432600480360381019061042d9190613388565b611590565b005b34801561044057600080fd5b5061045b600480360381019061045691906133c8565b6115a6565b005b34801561046957600080fd5b50610484600480360381019061047f91906134a9565b611713565b005b34801561049257600080fd5b506104ad60048036038101906104a89190612f92565b611775565b6040516104ba9190612f70565b60405180910390f35b3480156104cf57600080fd5b506104ea60048036038101906104e59190612f92565b611887565b005b3480156104f857600080fd5b50610513600480360381019061050e919061352c565b611ab5565b6040516105209190612e23565b60405180910390f35b6000634906490660e01b7bffffffffffffffffffffffffffffffffffffffffffffffffffffffff1916827bffffffffffffffffffffffffffffffffffffffffffffffffffffffff19161480610583575061058282611b49565b5b9050919050565b813373ffffffffffffffffffffffffffffffffffffffff166105ab82610f76565b73ffffffffffffffffffffffffffffffffffffffff1614610601576040517f08c379a00000000000000000000000000000000000000000000000000000000081526004016105f8906135de565b60405180910390fd5b6000600f60008581526020019081526020016000209050828160030160146101000a81548160ff0219169083151502179055507f8518919407d5f2b4c8c2713880701616469f8e98c13f43b1b02f9a579e2554638482600101836002018460030160009054906101000a900473ffffffffffffffffffffffffffffffffffffffff1687604051610695959493929190613718565b60405180910390a150505050565b6060600080546106b29061362d565b80601f01602080910402602001604051908101604052809291908181526020018280546106de9061362d565b801561072b5780601f106107005761010080835404028352916020019161072b565b820191906000526020600020905b81548152906001019060200180831161070e57829003601f168201915b5050505050905090565b6000600d600083815260200190815260200160002090503373ffffffffffffffffffffffffffffffffffffffff168160010160009054906101000a900473ffffffffffffffffffffffffffffffffffffffff1673ffffffffffffffffffffffffffffffffffffffff16146107de576040517f08c379a00000000000000000000000000000000000000000000000000000000081526004016107d5906137eb565b60405180910390fd5b610811308260010160009054906101000a900473ffffffffffffffffffffffffffffffffffffffff168360000154611c2b565b61081a82611f24565b8060010160009054906101000a900473ffffffffffffffffffffffffffffffffffffffff1673ffffffffffffffffffffffffffffffffffffffff16827f4d9113a1377d665eaa1f9168a9c9080f2e488cb820b10149de3d6d2e0f2780c760006040516108869190613850565b60405180910390a35050565b600061089d8261218a565b6004600083815260200190815260200160002060009054906101000a900473ffffffffffffffffffffffffffffffffffffffff169050919050565b60006108e382610f76565b90508073ffffffffffffffffffffffffffffffffffffffff168373ffffffffffffffffffffffffffffffffffffffff1603610953576040517f08c379a000000000000000000000000000000000000000000000000000000000815260040161094a906138dd565b60405180910390fd5b8073ffffffffffffffffffffffffffffffffffffffff166109726121d5565b73ffffffffffffffffffffffffffffffffffffffff1614806109a157506109a08161099b6121d5565b611ab5565b5b6109e0576040517f08c379a00000000000000000000000000000000000000000000000000000000081526004016109d79061396f565b60405180910390fd5b6109ea83836121dd565b505050565b610a006109fa6121d5565b82612296565b610a3f576040517f08c379a0000000000000000000000000000000000000000000000000000000008152600401610a3690613a01565b60405180910390fd5b610a4a838383611c2b565b505050565b6000610a5b600861232b565b6000610a676008612341565b9050610a73338261234f565b610a7d818761256c565b6040518060a001604052808281526020018681526020018581526020013373ffffffffffffffffffffffffffffffffffffffff168152602001841515815250600f6000838152602001908152602001600020600082015181600001556020820151816001019081610aee9190613bae565b506040820151816002019081610b049190613bae565b5060608201518160030160006101000a81548173ffffffffffffffffffffffffffffffffffffffff021916908373ffffffffffffffffffffffffffffffffffffffff16021790555060808201518160030160146101000a81548160ff0219169083151502179055509050507f79aefd68e49ea0a861852db364101612acbf8aa09563fea199f267edebb1f6488186863387604051610ba6959493929190613c80565b60405180910390a180915050949350505050565b610bd583838360405180602001604052806000815250611713565b505050565b833373ffffffffffffffffffffffffffffffffffffffff16610bfb82610f76565b73ffffffffffffffffffffffffffffffffffffffff1614610c51576040517f08c379a0000000000000000000000000000000000000000000000000000000008152600401610c48906135de565b60405180910390fd5b60008411610c94576040517f08c379a0000000000000000000000000000000000000000000000000000000008152600401610c8b90613d53565b60405180910390fd5b610c9d85611f24565b6040518060e001604052808681526020013373ffffffffffffffffffffffffffffffffffffffff16815260200185815260200160008152602001600073ffffffffffffffffffffffffffffffffffffffff16815260200184815260200183815250600e60008781526020019081526020016000206000820151816000015560208201518160010160006101000a81548173ffffffffffffffffffffffffffffffffffffffff021916908373ffffffffffffffffffffffffffffffffffffffff160217905550604082015181600201556060820151816003015560808201518160040160006101000a81548173ffffffffffffffffffffffffffffffffffffffff021916908373ffffffffffffffffffffffffffffffffffffffff16021790555060a0820151816005015560c08201518160060155905050610ddf333087611c2b565b843073ffffffffffffffffffffffffffffffffffffffff167fd3d4cc8f230826bf4ebd1a2e2904369b0dda86ce1cb1bc8e39ba6f47f91942e08733888888604051610e2e959493929190613d73565b60405180910390a35050505050565b610e45612610565b6000600d6000838152602001908152602001600020905080600201543414610ea2576040517f08c379a0000000000000000000000000000000000000000000000000000000008152600401610e9990613e12565b60405180910390fd5b8060010160009054906101000a900473ffffffffffffffffffffffffffffffffffffffff1673ffffffffffffffffffffffffffffffffffffffff166108fc349081150290604051600060405180830381858888f19350505050158015610f0c573d6000803e3d6000fd5b50610f18303384611c2b565b610f22600a61232b565b610f2b82611f24565b7f787925e050e8cb8dba61a675397ced37ba5304fc76b70c50b62753eed7c9ef6482338360020154604051610f6293929190613e32565b60405180910390a150610f7361265f565b50565b600080610f8283612669565b9050600073ffffffffffffffffffffffffffffffffffffffff168173ffffffffffffffffffffffffffffffffffffffff1603610ff3576040517f08c379a0000000000000000000000000000000000000000000000000000000008152600401610fea90613eb5565b60405180910390fd5b80915050919050565b60008073ffffffffffffffffffffffffffffffffffffffff168273ffffffffffffffffffffffffffffffffffffffff160361106c576040517f08c379a000000000000000000000000000000000000000000000000000000000815260040161106390613f47565b60405180910390fd5b600360008373ffffffffffffffffffffffffffffffffffffffff1673ffffffffffffffffffffffffffffffffffffffff168152602001908152602001600020549050919050565b6060600180546110c29061362d565b80601f01602080910402602001604051908101604052809291908181526020018280546110ee9061362d565b801561113b5780601f106111105761010080835404028352916020019161113b565b820191906000526020600020905b81548152906001019060200180831161111e57829003601f168201915b5050505050905090565b6000600e600083815260200190815260200160002090503373ffffffffffffffffffffffffffffffffffffffff168160010160009054906101000a900473ffffffffffffffffffffffffffffffffffffffff1673ffffffffffffffffffffffffffffffffffffffff16146111ee576040517f08c379a00000000000000000000000000000000000000000000000000000000081526004016111e5906137eb565b60405180910390fd5b6000816003015414611235576040517f08c379a000000000000000000000000000000000000000000000000000000000815260040161122c90613fd9565b60405180910390fd5b611268308260010160009054906101000a900473ffffffffffffffffffffffffffffffffffffffff168360000154611c2b565b61127182611f24565b8060010160009054906101000a900473ffffffffffffffffffffffffffffffffffffffff1673ffffffffffffffffffffffffffffffffffffffff16827f4d9113a1377d665eaa1f9168a9c9080f2e488cb820b10149de3d6d2e0f2780c760006040516112dd9190613850565b60405180910390a35050565b6112f1612610565b6000600e600083815260200190815260200160002090508060060154421061134e576040517f08c379a000000000000000000000000000000000000000000000000000000000815260040161134590614045565b60405180910390fd5b80600501544211611394576040517f08c379a000000000000000000000000000000000000000000000000000000000815260040161138b906140b1565b60405180910390fd5b806003015434116113da576040517f08c379a00000000000000000000000000000000000000000000000000000000081526004016113d190614143565b60405180910390fd5b8060020154341015611421576040517f08c379a0000000000000000000000000000000000000000000000000000000008152600401611418906141d5565b60405180910390fd5b600073ffffffffffffffffffffffffffffffffffffffff168160040160009054906101000a900473ffffffffffffffffffffffffffffffffffffffff1673ffffffffffffffffffffffffffffffffffffffff16146114e9578060040160009054906101000a900473ffffffffffffffffffffffffffffffffffffffff1673ffffffffffffffffffffffffffffffffffffffff166108fc82600301549081150290604051600060405180830381858888f193505050501580156114e7573d6000803e3d6000fd5b505b348160030181905550338160040160006101000a81548173ffffffffffffffffffffffffffffffffffffffff021916908373ffffffffffffffffffffffffffffffffffffffff1602179055503373ffffffffffffffffffffffffffffffffffffffff16827f0e54eff26401bf69b81b26f60bd85ef47f5d85275c1d268d84f68d6897431c473460405161157c91906132d9565b60405180910390a35061158d61265f565b50565b6115a261159b6121d5565b83836126a6565b5050565b813373ffffffffffffffffffffffffffffffffffffffff166115c782610f76565b73ffffffffffffffffffffffffffffffffffffffff161461161d576040517f08c379a0000000000000000000000000000000000000000000000000000000008152600401611614906135de565b60405180910390fd5b61162683611f24565b60405180606001604052808481526020013373ffffffffffffffffffffffffffffffffffffffff16815260200183815250600d60008581526020019081526020016000206000820151816000015560208201518160010160006101000a81548173ffffffffffffffffffffffffffffffffffffffff021916908373ffffffffffffffffffffffffffffffffffffffff160217905550604082015181600201559050506116d3333085611c2b565b7fec759846c972e2aa7c351c68392f7388dfb8511b1d2be0ee4cdfbc50011f715283338460405161170693929190613e32565b60405180910390a1505050565b61172461171e6121d5565b83612296565b611763576040517f08c379a000000000000000000000000000000000000000000000000000000000815260040161175a90613a01565b60405180910390fd5b61176f84848484612812565b50505050565b60606117808261218a565b60006006600084815260200190815260200160002080546117a09061362d565b80601f01602080910402602001604051908101604052809291908181526020018280546117cc9061362d565b80156118195780601f106117ee57610100808354040283529160200191611819565b820191906000526020600020905b8154815290600101906020018083116117fc57829003601f168201915b50505050509050600061182a61286e565b9050600081510361183f578192505050611882565b60008251111561187457808260405160200161185c929190614231565b60405160208183030381529060405292505050611882565b61187d84612885565b925050505b919050565b61188f612610565b6000600e6000838152602001908152602001600020905080600601544210156118ed576040517f08c379a00000000000000000000000000000000000000000000000000000000081526004016118e4906142a1565b60405180910390fd5b600073ffffffffffffffffffffffffffffffffffffffff168160040160009054906101000a900473ffffffffffffffffffffffffffffffffffffffff1673ffffffffffffffffffffffffffffffffffffffff1614611a6c57611978308260040160009054906101000a900473ffffffffffffffffffffffffffffffffffffffff168360000154611c2b565b8060010160009054906101000a900473ffffffffffffffffffffffffffffffffffffffff1673ffffffffffffffffffffffffffffffffffffffff166108fc82600301549081150290604051600060405180830381858888f193505050501580156119e6573d6000803e3d6000fd5b508060040160009054906101000a900473ffffffffffffffffffffffffffffffffffffffff1673ffffffffffffffffffffffffffffffffffffffff16827f4d9113a1377d665eaa1f9168a9c9080f2e488cb820b10149de3d6d2e0f2780c78360030154604051611a5691906132d9565b60405180910390a3611a6782611f24565b611aa9565b611a7582611f24565b611aa8308260010160009054906101000a900473ffffffffffffffffffffffffffffffffffffffff168360000154611c2b565b5b50611ab261265f565b50565b6000600560008473ffffffffffffffffffffffffffffffffffffffff1673ffffffffffffffffffffffffffffffffffffffff16815260200190815260200160002060008373ffffffffffffffffffffffffffffffffffffffff1673ffffffffffffffffffffffffffffffffffffffff16815260200190815260200160002060009054906101000a900460ff16905092915050565b60007f80ac58cd000000000000000000000000000000000000000000000000000000007bffffffffffffffffffffffffffffffffffffffffffffffffffffffff1916827bffffffffffffffffffffffffffffffffffffffffffffffffffffffff19161480611c1457507f5b5e139f000000000000000000000000000000000000000000000000000000007bffffffffffffffffffffffffffffffffffffffffffffffffffffffff1916827bffffffffffffffffffffffffffffffffffffffffffffffffffffffff1916145b80611c245750611c23826128ed565b5b9050919050565b8273ffffffffffffffffffffffffffffffffffffffff16611c4b82610f76565b73ffffffffffffffffffffffffffffffffffffffff1614611ca1576040517f08c379a0000000000000000000000000000000000000000000000000000000008152600401611c9890614333565b60405180910390fd5b600073ffffffffffffffffffffffffffffffffffffffff168273ffffffffffffffffffffffffffffffffffffffff1603611d10576040517f08c379a0000000000000000000000000000000000000000000000000000000008152600401611d07906143c5565b60405180910390fd5b611d1d8383836001612957565b8273ffffffffffffffffffffffffffffffffffffffff16611d3d82610f76565b73ffffffffffffffffffffffffffffffffffffffff1614611d93576040517f08c379a0000000000000000000000000000000000000000000000000000000008152600401611d8a90614333565b60405180910390fd5b6004600082815260200190815260200160002060006101000a81549073ffffffffffffffffffffffffffffffffffffffff02191690556001600360008573ffffffffffffffffffffffffffffffffffffffff1673ffffffffffffffffffffffffffffffffffffffff168152602001908152602001600020600082825403925050819055506001600360008473ffffffffffffffffffffffffffffffffffffffff1673ffffffffffffffffffffffffffffffffffffffff16815260200190815260200160002060008282540192505081905550816002600083815260200190815260200160002060006101000a81548173ffffffffffffffffffffffffffffffffffffffff021916908373ffffffffffffffffffffffffffffffffffffffff160217905550808273ffffffffffffffffffffffffffffffffffffffff168473ffffffffffffffffffffffffffffffffffffffff167fddf252ad1be2c89b69c2b068fc378daa952ba7f163c4a11628f55a4df523b3ef60405160405180910390a4611f1f838383600161295d565b505050565b6000600d6000838152602001908152602001600020600201541180611fac5750600073ffffffffffffffffffffffffffffffffffffffff16600d600083815260200190815260200160002060010160009054906101000a900473ffffffffffffffffffffffffffffffffffffffff1673ffffffffffffffffffffffffffffffffffffffff1614155b1561203657600d60008281526020019081526020016000206000808201600090556001820160006101000a81549073ffffffffffffffffffffffffffffffffffffffff0219169055600282016000905550507fb4fe5f359651a837070fea1e3502d1a5f6213e7c67cf6d3f92aa833d44704e698160405161202d91906132d9565b60405180910390a15b6000600e60008381526020019081526020016000206003015411806120be5750600073ffffffffffffffffffffffffffffffffffffffff16600e600083815260200190815260200160002060010160009054906101000a900473ffffffffffffffffffffffffffffffffffffffff1673ffffffffffffffffffffffffffffffffffffffff1614155b1561218757600e60008281526020019081526020016000206000808201600090556001820160006101000a81549073ffffffffffffffffffffffffffffffffffffffff0219169055600282016000905560038201600090556004820160006101000a81549073ffffffffffffffffffffffffffffffffffffffff02191690556005820160009055600682016000905550507f656f1661957c320f5f7c4148f42b58b8645550e0f43d901435d7d536cb2018c48160405161217e91906132d9565b60405180910390a15b50565b61219381612963565b6121d2576040517f08c379a00000000000000000000000000000000000000000000000000000000081526004016121c990613eb5565b60405180910390fd5b50565b600033905090565b816004600083815260200190815260200160002060006101000a81548173ffffffffffffffffffffffffffffffffffffffff021916908373ffffffffffffffffffffffffffffffffffffffff160217905550808273ffffffffffffffffffffffffffffffffffffffff1661225083610f76565b73ffffffffffffffffffffffffffffffffffffffff167f8c5be1e5ebec7d5bd14f71427d1e84f3dd0314c0f7b2291e5b200ac8c7c3b92560405160405180910390a45050565b6000806122a283610f76565b90508073ffffffffffffffffffffffffffffffffffffffff168473ffffffffffffffffffffffffffffffffffffffff1614806122e457506122e38185611ab5565b5b8061232257508373ffffffffffffffffffffffffffffffffffffffff1661230a84610892565b73ffffffffffffffffffffffffffffffffffffffff16145b91505092915050565b6001816000016000828254019250508190555050565b600081600001549050919050565b600073ffffffffffffffffffffffffffffffffffffffff168273ffffffffffffffffffffffffffffffffffffffff16036123be576040517f08c379a00000000000000000000000000000000000000000000000000000000081526004016123b590614431565b60405180910390fd5b6123c781612963565b15612407576040517f08c379a00000000000000000000000000000000000000000000000000000000081526004016123fe9061449d565b60405180910390fd5b612415600083836001612957565b61241e81612963565b1561245e576040517f08c379a00000000000000000000000000000000000000000000000000000000081526004016124559061449d565b60405180910390fd5b6001600360008473ffffffffffffffffffffffffffffffffffffffff1673ffffffffffffffffffffffffffffffffffffffff16815260200190815260200160002060008282540192505081905550816002600083815260200190815260200160002060006101000a81548173ffffffffffffffffffffffffffffffffffffffff021916908373ffffffffffffffffffffffffffffffffffffffff160217905550808273ffffffffffffffffffffffffffffffffffffffff16600073ffffffffffffffffffffffffffffffffffffffff167fddf252ad1be2c89b69c2b068fc378daa952ba7f163c4a11628f55a4df523b3ef60405160405180910390a461256860008383600161295d565b5050565b61257582612963565b6125b4576040517f08c379a00000000000000000000000000000000000000000000000000000000081526004016125ab9061452f565b60405180910390fd5b806006600084815260200190815260200160002090816125d49190613bae565b507ff8e1a15aba9398e019f0b49df1a4fde98ee17ae345cb5f6b5e2c27f5033e8ce78260405161260491906132d9565b60405180910390a15050565b600260075403612655576040517f08c379a000000000000000000000000000000000000000000000000000000000815260040161264c9061459b565b60405180910390fd5b6002600781905550565b6001600781905550565b60006002600083815260200190815260200160002060009054906101000a900473ffffffffffffffffffffffffffffffffffffffff169050919050565b8173ffffffffffffffffffffffffffffffffffffffff168373ffffffffffffffffffffffffffffffffffffffff1603612714576040517f08c379a000000000000000000000000000000000000000000000000000000000815260040161270b90614607565b60405180910390fd5b80600560008573ffffffffffffffffffffffffffffffffffffffff1673ffffffffffffffffffffffffffffffffffffffff16815260200190815260200160002060008473ffffffffffffffffffffffffffffffffffffffff1673ffffffffffffffffffffffffffffffffffffffff16815260200190815260200160002060006101000a81548160ff0219169083151502179055508173ffffffffffffffffffffffffffffffffffffffff168373ffffffffffffffffffffffffffffffffffffffff167f17307eab39ab6107e8899845ad3d59bd9653f200f220920489ca2b5937696c31836040516128059190612e23565b60405180910390a3505050565b61281d848484611c2b565b612829848484846129a4565b612868576040517f08c379a000000000000000000000000000000000000000000000000000000000815260040161285f90614699565b60405180910390fd5b50505050565b606060405180602001604052806000815250905090565b60606128908261218a565b600061289a61286e565b905060008151116128ba57604051806020016040528060008152506128e5565b806128c484612b2b565b6040516020016128d5929190614231565b6040516020818303038152906040525b915050919050565b60007f01ffc9a7000000000000000000000000000000000000000000000000000000007bffffffffffffffffffffffffffffffffffffffffffffffffffffffff1916827bffffffffffffffffffffffffffffffffffffffffffffffffffffffff1916149050919050565b50505050565b50505050565b60008073ffffffffffffffffffffffffffffffffffffffff1661298583612669565b73ffffffffffffffffffffffffffffffffffffffff1614159050919050565b60006129c58473ffffffffffffffffffffffffffffffffffffffff16612bf9565b15612b1e578373ffffffffffffffffffffffffffffffffffffffff1663150b7a026129ee6121d5565b8786866040518563ffffffff1660e01b8152600401612a10949392919061470e565b6020604051808303816000875af1925050508015612a4c57506040513d601f19601f82011682018060405250810190612a49919061476f565b60015b612ace573d8060008114612a7c576040519150601f19603f3d011682016040523d82523d6000602084013e612a81565b606091505b506000815103612ac6576040517f08c379a0000000000000000000000000000000000000000000000000000000008152600401612abd90614699565b60405180910390fd5b805181602001fd5b63150b7a0260e01b7bffffffffffffffffffffffffffffffffffffffffffffffffffffffff1916817bffffffffffffffffffffffffffffffffffffffffffffffffffffffff191614915050612b23565b600190505b949350505050565b606060006001612b3a84612c1c565b01905060008167ffffffffffffffff811115612b5957612b586130e4565b5b6040519080825280601f01601f191660200182016040528015612b8b5781602001600182028036833780820191505090505b509050600082602001820190505b600115612bee578080600190039150507f3031323334353637383961626364656600000000000000000000000000000000600a86061a8153600a8581612be257612be161479c565b5b04945060008503612b99575b819350505050919050565b6000808273ffffffffffffffffffffffffffffffffffffffff163b119050919050565b600080600090507a184f03e93ff9f4daa797ed6e38ed64bf6a1f0100000000000000008310612c7a577a184f03e93ff9f4daa797ed6e38ed64bf6a1f0100000000000000008381612c7057612c6f61479c565b5b0492506040810190505b6d04ee2d6d415b85acef81000000008310612cb7576d04ee2d6d415b85acef81000000008381612cad57612cac61479c565b5b0492506020810190505b662386f26fc100008310612ce657662386f26fc100008381612cdc57612cdb61479c565b5b0492506010810190505b6305f5e1008310612d0f576305f5e1008381612d0557612d0461479c565b5b0492506008810190505b6127108310612d34576127108381612d2a57612d2961479c565b5b0492506004810190505b60648310612d575760648381612d4d57612d4c61479c565b5b0492506002810190505b600a8310612d66576001810190505b80915050919050565b6000604051905090565b600080fd5b600080fd5b60007fffffffff0000000000000000000000000000000000000000000000000000000082169050919050565b612db881612d83565b8114612dc357600080fd5b50565b600081359050612dd581612daf565b92915050565b600060208284031215612df157612df0612d79565b5b6000612dff84828501612dc6565b91505092915050565b60008115159050919050565b612e1d81612e08565b82525050565b6000602082019050612e386000830184612e14565b92915050565b6000819050919050565b612e5181612e3e565b8114612e5c57600080fd5b50565b600081359050612e6e81612e48565b92915050565b612e7d81612e08565b8114612e8857600080fd5b50565b600081359050612e9a81612e74565b92915050565b60008060408385031215612eb757612eb6612d79565b5b6000612ec585828601612e5f565b9250506020612ed685828601612e8b565b9150509250929050565b600081519050919050565b600082825260208201905092915050565b60005b83811015612f1a578082015181840152602081019050612eff565b60008484015250505050565b6000601f19601f8301169050919050565b6000612f4282612ee0565b612f4c8185612eeb565b9350612f5c818560208601612efc565b612f6581612f26565b840191505092915050565b60006020820190508181036000830152612f8a8184612f37565b905092915050565b600060208284031215612fa857612fa7612d79565b5b6000612fb684828501612e5f565b91505092915050565b600073ffffffffffffffffffffffffffffffffffffffff82169050919050565b6000612fea82612fbf565b9050919050565b612ffa81612fdf565b82525050565b60006020820190506130156000830184612ff1565b92915050565b61302481612fdf565b811461302f57600080fd5b50565b6000813590506130418161301b565b92915050565b6000806040838503121561305e5761305d612d79565b5b600061306c85828601613032565b925050602061307d85828601612e5f565b9150509250929050565b6000806000606084860312156130a05761309f612d79565b5b60006130ae86828701613032565b93505060206130bf86828701613032565b92505060406130d086828701612e5f565b9150509250925092565b600080fd5b600080fd5b7f4e487b7100000000000000000000000000000000000000000000000000000000600052604160045260246000fd5b61311c82612f26565b810181811067ffffffffffffffff8211171561313b5761313a6130e4565b5b80604052505050565b600061314e612d6f565b905061315a8282613113565b919050565b600067ffffffffffffffff82111561317a576131796130e4565b5b61318382612f26565b9050602081019050919050565b82818337600083830152505050565b60006131b26131ad8461315f565b613144565b9050828152602081018484840111156131ce576131cd6130df565b5b6131d9848285613190565b509392505050565b600082601f8301126131f6576131f56130da565b5b813561320684826020860161319f565b91505092915050565b6000806000806080858703121561322957613228612d79565b5b600085013567ffffffffffffffff81111561324757613246612d7e565b5b613253878288016131e1565b945050602085013567ffffffffffffffff81111561327457613273612d7e565b5b613280878288016131e1565b935050604085013567ffffffffffffffff8111156132a1576132a0612d7e565b5b6132ad878288016131e1565b92505060606132be87828801612e8b565b91505092959194509250565b6132d381612e3e565b82525050565b60006020820190506132ee60008301846132ca565b92915050565b6000806000806080858703121561330e5761330d612d79565b5b600061331c87828801612e5f565b945050602061332d87828801612e5f565b935050604061333e87828801612e5f565b925050606061334f87828801612e5f565b91505092959194509250565b60006020828403121561337157613370612d79565b5b600061337f84828501613032565b91505092915050565b6000806040838503121561339f5761339e612d79565b5b60006133ad85828601613032565b92505060206133be85828601612e8b565b9150509250929050565b600080604083850312156133df576133de612d79565b5b60006133ed85828601612e5f565b92505060206133fe85828601612e5f565b9150509250929050565b600067ffffffffffffffff821115613423576134226130e4565b5b61342c82612f26565b9050602081019050919050565b600061344c61344784613408565b613144565b905082815260208101848484011115613468576134676130df565b5b613473848285613190565b509392505050565b600082601f8301126134905761348f6130da565b5b81356134a0848260208601613439565b91505092915050565b600080600080608085870312156134c3576134c2612d79565b5b60006134d187828801613032565b94505060206134e287828801613032565b93505060406134f387828801612e5f565b925050606085013567ffffffffffffffff81111561351457613513612d7e565b5b6135208782880161347b565b91505092959194509250565b6000806040838503121561354357613542612d79565b5b600061355185828601613032565b925050602061356285828601613032565b9150509250929050565b7f43616c6c6572206973206e6f7420746865206f776e6572206f6620746869732060008201527f746f6b656e000000000000000000000000000000000000000000000000000000602082015250565b60006135c8602583612eeb565b91506135d38261356c565b604082019050919050565b600060208201905081810360008301526135f7816135bb565b9050919050565b7f4e487b7100000000000000000000000000000000000000000000000000000000600052602260045260246000fd5b6000600282049050600182168061364557607f821691505b602082108103613658576136576135fe565b5b50919050565b60008190508160005260206000209050919050565b600081546136808161362d565b61368a8186612eeb565b945060018216600081146136a557600181146136bb576136ee565b60ff1983168652811515602002860193506136ee565b6136c48561365e565b60005b838110156136e6578154818901526001820191506020810190506136c7565b808801955050505b50505092915050565b600061370282612fbf565b9050919050565b613712816136f7565b82525050565b600060a08201905061372d60008301886132ca565b818103602083015261373f8187613673565b905081810360408301526137538186613673565b90506137626060830185613709565b61376f6080830184612e14565b9695505050505050565b7f4f6e6c79207468652073656c6c65722063616e2063616e63656c20746865206160008201527f756374696f6e2e00000000000000000000000000000000000000000000000000602082015250565b60006137d5602783612eeb565b91506137e082613779565b604082019050919050565b60006020820190508181036000830152613804816137c8565b9050919050565b6000819050919050565b6000819050919050565b600061383a6138356138308461380b565b613815565b612e3e565b9050919050565b61384a8161381f565b82525050565b60006020820190506138656000830184613841565b92915050565b7f4552433732313a20617070726f76616c20746f2063757272656e74206f776e6560008201527f7200000000000000000000000000000000000000000000000000000000000000602082015250565b60006138c7602183612eeb565b91506138d28261386b565b604082019050919050565b600060208201905081810360008301526138f6816138ba565b9050919050565b7f4552433732313a20617070726f76652063616c6c6572206973206e6f7420746f60008201527f6b656e206f776e6572206f7220617070726f76656420666f7220616c6c000000602082015250565b6000613959603d83612eeb565b9150613964826138fd565b604082019050919050565b600060208201905081810360008301526139888161394c565b9050919050565b7f4552433732313a2063616c6c6572206973206e6f7420746f6b656e206f776e6560008201527f72206f7220617070726f76656400000000000000000000000000000000000000602082015250565b60006139eb602d83612eeb565b91506139f68261398f565b604082019050919050565b60006020820190508181036000830152613a1a816139de565b9050919050565b60006020601f8301049050919050565b600082821b905092915050565b600060088302613a6e7fffffffffffffffffffffffffffffffffffffffffffffffffffffffffffffffff82613a31565b613a788683613a31565b95508019841693508086168417925050509392505050565b6000613aab613aa6613aa184612e3e565b613815565b612e3e565b9050919050565b6000819050919050565b613ac583613a90565b613ad9613ad182613ab2565b848454613a3e565b825550505050565b600090565b613aee613ae1565b613af9818484613abc565b505050565b5b81811015613b1d57613b12600082613ae6565b600181019050613aff565b5050565b601f821115613b6257613b338161365e565b613b3c84613a21565b81016020851015613b4b578190505b613b5f613b5785613a21565b830182613afe565b50505b505050565b600082821c905092915050565b6000613b8560001984600802613b67565b1980831691505092915050565b6000613b9e8383613b74565b9150826002028217905092915050565b613bb782612ee0565b67ffffffffffffffff811115613bd057613bcf6130e4565b5b613bda825461362d565b613be5828285613b21565b600060209050601f831160018114613c185760008415613c06578287015190505b613c108582613b92565b865550613c78565b601f198416613c268661365e565b60005b82811015613c4e57848901518255600182019150602085019450602081019050613c29565b86831015613c6b5784890151613c67601f891682613b74565b8355505b6001600288020188555050505b505050505050565b600060a082019050613c9560008301886132ca565b8181036020830152613ca78187612f37565b90508181036040830152613cbb8186612f37565b9050613cca6060830185613709565b613cd76080830184612e14565b9695505050505050565b7f5374617274696e67207072696365206d7573742062652067726561746572207460008201527f68616e207a65726f000000000000000000000000000000000000000000000000602082015250565b6000613d3d602883612eeb565b9150613d4882613ce1565b604082019050919050565b60006020820190508181036000830152613d6c81613d30565b9050919050565b600060a082019050613d8860008301886132ca565b613d956020830187612ff1565b613da260408301866132ca565b613daf60608301856132ca565b613dbc60808301846132ca565b9695505050505050565b7f506c65617365207375626d6974207468652061736b696e672070726963650000600082015250565b6000613dfc601e83612eeb565b9150613e0782613dc6565b602082019050919050565b60006020820190508181036000830152613e2b81613def565b9050919050565b6000606082019050613e4760008301866132ca565b613e546020830185612ff1565b613e6160408301846132ca565b949350505050565b7f4552433732313a20696e76616c696420746f6b656e2049440000000000000000600082015250565b6000613e9f601883612eeb565b9150613eaa82613e69565b602082019050919050565b60006020820190508181036000830152613ece81613e92565b9050919050565b7f4552433732313a2061646472657373207a65726f206973206e6f74206120766160008201527f6c6964206f776e65720000000000000000000000000000000000000000000000602082015250565b6000613f31602983612eeb565b9150613f3c82613ed5565b604082019050919050565b60006020820190508181036000830152613f6081613f24565b9050919050565b7f43616e6e6f742063616e63656c207468652061756374696f6e2061667465722060008201527f612062696420686173206265656e20706c616365642e00000000000000000000602082015250565b6000613fc3603683612eeb565b9150613fce82613f67565b604082019050919050565b60006020820190508181036000830152613ff281613fb6565b9050919050565b7f41756374696f6e2068617320656e646564000000000000000000000000000000600082015250565b600061402f601183612eeb565b915061403a82613ff9565b602082019050919050565b6000602082019050818103600083015261405e81614022565b9050919050565b7f41756374696f6e206e6f74207374617274000000000000000000000000000000600082015250565b600061409b601183612eeb565b91506140a682614065565b602082019050919050565b600060208201905081810360008301526140ca8161408e565b9050919050565b7f426964206d75737420626520686967686572207468616e20746865206375727260008201527f656e742068696768657374206269640000000000000000000000000000000000602082015250565b600061412d602f83612eeb565b9150614138826140d1565b604082019050919050565b6000602082019050818103600083015261415c81614120565b9050919050565b7f426964206d757374206265206174206c6561737420746865207374617274696e60008201527f6720707269636500000000000000000000000000000000000000000000000000602082015250565b60006141bf602783612eeb565b91506141ca82614163565b604082019050919050565b600060208201905081810360008301526141ee816141b2565b9050919050565b600081905092915050565b600061420b82612ee0565b61421581856141f5565b9350614225818560208601612efc565b80840191505092915050565b600061423d8285614200565b91506142498284614200565b91508190509392505050565b7f41756374696f6e20686173206e6f7420656e6465642079657400000000000000600082015250565b600061428b601983612eeb565b915061429682614255565b602082019050919050565b600060208201905081810360008301526142ba8161427e565b9050919050565b7f4552433732313a207472616e736665722066726f6d20696e636f72726563742060008201527f6f776e6572000000000000000000000000000000000000000000000000000000602082015250565b600061431d602583612eeb565b9150614328826142c1565b604082019050919050565b6000602082019050818103600083015261434c81614310565b9050919050565b7f4552433732313a207472616e7366657220746f20746865207a65726f2061646460008201527f7265737300000000000000000000000000000000000000000000000000000000602082015250565b60006143af602483612eeb565b91506143ba82614353565b604082019050919050565b600060208201905081810360008301526143de816143a2565b9050919050565b7f4552433732313a206d696e7420746f20746865207a65726f2061646472657373600082015250565b600061441b602083612eeb565b9150614426826143e5565b602082019050919050565b6000602082019050818103600083015261444a8161440e565b9050919050565b7f4552433732313a20746f6b656e20616c7265616479206d696e74656400000000600082015250565b6000614487601c83612eeb565b915061449282614451565b602082019050919050565b600060208201905081810360008301526144b68161447a565b9050919050565b7f45524337323155524953746f726167653a2055524920736574206f66206e6f6e60008201527f6578697374656e7420746f6b656e000000000000000000000000000000000000602082015250565b6000614519602e83612eeb565b9150614524826144bd565b604082019050919050565b600060208201905081810360008301526145488161450c565b9050919050565b7f5265656e7472616e637947756172643a207265656e7472616e742063616c6c00600082015250565b6000614585601f83612eeb565b91506145908261454f565b602082019050919050565b600060208201905081810360008301526145b481614578565b9050919050565b7f4552433732313a20617070726f766520746f2063616c6c657200000000000000600082015250565b60006145f1601983612eeb565b91506145fc826145bb565b602082019050919050565b60006020820190508181036000830152614620816145e4565b9050919050565b7f4552433732313a207472616e7366657220746f206e6f6e20455243373231526560008201527f63656976657220696d706c656d656e7465720000000000000000000000000000602082015250565b6000614683603283612eeb565b915061468e82614627565b604082019050919050565b600060208201905081810360008301526146b281614676565b9050919050565b600081519050919050565b600082825260208201905092915050565b60006146e0826146b9565b6146ea81856146c4565b93506146fa818560208601612efc565b61470381612f26565b840191505092915050565b60006080820190506147236000830187612ff1565b6147306020830186612ff1565b61473d60408301856132ca565b818103606083015261474f81846146d5565b905095945050505050565b60008151905061476981612daf565b92915050565b60006020828403121561478557614784612d79565b5b60006147938482850161475a565b91505092915050565b7f4e487b7100000000000000000000000000000000000000000000000000000000600052601260045260246000fdfea2646970667358221220042f31ea8631d3de96a805c102d53204eb16ac399ce074f09064fba95082da9c64736f6c634300081b0033",
  "linkReferences": {},
  "deployedLinkReferences": {}
}