{
  "contractName": "NFTMarketplace",
  "abi": [
    {
      "inputs": [],
      "stateMutability": "nonpayable",
      "type": "constructor"
    },
    {
      "anonymous": false,
      "inputs": [
        {
          "indexed": true,
          "internalType": "address",
          "name": "owner",
          "type": "address"
        },
        {
          "indexed": true,
          "internalType": "address",
          "name": "approved",
          "type": "address"
        },
        {
          "indexed": true,
          "internalType": "uint256",
          "name": "tokenId",
          "type": "uint256"
        }
      ],
      "name": "Approval",
      "type": "event"
    },
    {
      "anonymous": false,
      "inputs": [
        {
          "indexed": true,
          "internalType": "address",
          "name": "owner",
          "type": "address"
        },
        {
          "indexed": true,
          "internalType": "address",
          "name": "operator",
          "type": "address"
        },
        {
          "indexed": false,
          "internalType": "bool",
          "name": "approved",
          "type": "bool"
        }
      ],
      "name": "ApprovalForAll",
      "type": "event"
    },
    {
      "anonymous": false,
      "inputs": [
        {
          "indexed": false,
          "internalType": "uint256",
          "name": "auctionId",
          "type": "uint256"
        },
        {
          "indexed": true,
          "internalType": "address",
          "name": "nftContract",
          "type": "address"
        },
        {
          "indexed": true,
          "internalType": "uint256",
          "name": "tokenId",
          "type": "uint256"
        },
        {
          "indexed": false,
          "internalType": "address",
          "name": "seller",
          "type": "address"
        },
        {
          "indexed": false,
          "internalType": "uint256",
          "name": "startingPrice",
          "type": "uint256"
        },
        {
          "indexed": false,
          "internalType": "uint256",
          "name": "startTime",
          "type": "uint256"
        },
        {
          "indexed": false,
          "internalType": "uint256",
          "name": "endTime",
          "type": "uint256"
        }
      ],
      "name": "AuctionCreated",
      "type": "event"
    },
    {
      "anonymous": false,
      "inputs": [
        {
          "indexed": false,
          "internalType": "uint256",
          "name": "tokenId",
          "type": "uint256"
        }
      ],
      "name": "AuctionDeleted",
      "type": "event"
    },
    {
      "anonymous": false,
      "inputs": [
        {
          "indexed": true,
          "internalType": "uint256",
          "name": "auctionId",
          "type": "uint256"
        },
        {
          "indexed": true,
          "internalType": "address",
          "name": "winner",
          "type": "address"
        },
        {
          "indexed": false,
          "internalType": "uint256",
          "name": "finalAmount",
          "type": "uint256"
        }
      ],
      "name": "AuctionFinalized",
      "type": "event"
    },
    {
      "anonymous": false,
      "inputs": [
        {
          "indexed": true,
          "internalType": "uint256",
          "name": "auctionId",
          "type": "uint256"
        },
        {
          "indexed": true,
          "internalType": "address",
          "name": "bidder",
          "type": "address"
        },
        {
          "indexed": false,
          "internalType": "uint256",
          "name": "bidAmount",
          "type": "uint256"
        }
      ],
      "name": "BidPlaced",
      "type": "event"
    },
    {
      "anonymous": false,
      "inputs": [
        {
          "indexed": false,
          "internalType": "uint256",
          "name": "tokenId",
          "type": "uint256"
        },
        {
          "indexed": false,
          "internalType": "string",
          "name": "title",
          "type": "string"
        },
        {
          "indexed": false,
          "internalType": "string",
          "name": "description",
          "type": "string"
        },
        {
          "indexed": false,
          "internalType": "address payable",
          "name": "owner",
          "type": "address"
        },
        {
          "indexed": false,
          "internalType": "bool",
          "name": "show",
          "type": "bool"
        },
        {
          "indexed": false,
          "internalType": "string",
          "name": "image",
          "type": "string"
        }
      ],
      "name": "CreateListMyNFT",
      "type": "event"
    },
    {
      "anonymous": false,
      "inputs": [
        {
          "indexed": false,
          "internalType": "uint256",
          "name": "tokenId",
          "type": "uint256"
        },
        {
          "indexed": false,
          "internalType": "address",
          "name": "seller",
          "type": "address"
        },
        {
          "indexed": false,
          "internalType": "uint256",
          "name": "price",
          "type": "uint256"
        }
      ],
      "name": "MarketItemCreated",
      "type": "event"
    },
    {
      "anonymous": false,
      "inputs": [
        {
          "indexed": false,
          "internalType": "uint256",
          "name": "tokenId",
          "type": "uint256"
        }
      ],
      "name": "SellItemDeleted",
      "type": "event"
    },
    {
      "anonymous": false,
      "inputs": [
        {
          "indexed": false,
          "internalType": "uint256",
          "name": "tokenId",
          "type": "uint256"
        },
        {
          "indexed": false,
          "internalType": "address",
          "name": "buyer",
          "type": "address"
        },
        {
          "indexed": false,
          "internalType": "uint256",
          "name": "price",
          "type": "uint256"
        }
      ],
      "name": "TokenBought",
      "type": "event"
    },
    {
      "anonymous": false,
      "inputs": [
        {
          "indexed": true,
          "internalType": "address",
          "name": "from",
          "type": "address"
        },
        {
          "indexed": true,
          "internalType": "address",
          "name": "to",
          "type": "address"
        },
        {
          "indexed": true,
          "internalType": "uint256",
          "name": "tokenId",
          "type": "uint256"
        }
      ],
      "name": "Transfer",
      "type": "event"
    },
    {
      "anonymous": false,
      "inputs": [
        {
          "indexed": false,
          "internalType": "uint256",
          "name": "tokenId",
          "type": "uint256"
        },
        {
          "indexed": false,
          "internalType": "address payable",
          "name": "owner",
          "type": "address"
        },
        {
          "indexed": false,
          "internalType": "bool",
          "name": "show",
          "type": "bool"
        }
      ],
      "name": "UpdateListMyNFT",
      "type": "event"
    },
    {
      "inputs": [
        {
          "internalType": "address",
          "name": "to",
          "type": "address"
        },
        {
          "internalType": "uint256",
          "name": "tokenId",
          "type": "uint256"
        }
      ],
      "name": "approve",
      "outputs": [],
      "stateMutability": "nonpayable",
      "type": "function"
    },
    {
      "inputs": [
        {
          "internalType": "address",
          "name": "owner",
          "type": "address"
        }
      ],
      "name": "balanceOf",
      "outputs": [
        {
          "internalType": "uint256",
          "name": "",
          "type": "uint256"
        }
      ],
      "stateMutability": "view",
      "type": "function",
      "constant": true
    },
    {
      "inputs": [
        {
          "internalType": "uint256",
          "name": "tokenId",
          "type": "uint256"
        }
      ],
      "name": "getApproved",
      "outputs": [
        {
          "internalType": "address",
          "name": "",
          "type": "address"
        }
      ],
      "stateMutability": "view",
      "type": "function",
      "constant": true
    },
    {
      "inputs": [
        {
          "internalType": "address",
          "name": "owner",
          "type": "address"
        },
        {
          "internalType": "address",
          "name": "operator",
          "type": "address"
        }
      ],
      "name": "isApprovedForAll",
      "outputs": [
        {
          "internalType": "bool",
          "name": "",
          "type": "bool"
        }
      ],
      "stateMutability": "view",
      "type": "function",
      "constant": true
    },
    {
      "inputs": [],
      "name": "name",
      "outputs": [
        {
          "internalType": "string",
          "name": "",
          "type": "string"
        }
      ],
      "stateMutability": "view",
      "type": "function",
      "constant": true
    },
    {
      "inputs": [
        {
          "internalType": "uint256",
          "name": "tokenId",
          "type": "uint256"
        }
      ],
      "name": "ownerOf",
      "outputs": [
        {
          "internalType": "address",
          "name": "",
          "type": "address"
        }
      ],
      "stateMutability": "view",
      "type": "function",
      "constant": true
    },
    {
      "inputs": [
        {
          "internalType": "address",
          "name": "from",
          "type": "address"
        },
        {
          "internalType": "address",
          "name": "to",
          "type": "address"
        },
        {
          "internalType": "uint256",
          "name": "tokenId",
          "type": "uint256"
        }
      ],
      "name": "safeTransferFrom",
      "outputs": [],
      "stateMutability": "nonpayable",
      "type": "function"
    },
    {
      "inputs": [
        {
          "internalType": "address",
          "name": "from",
          "type": "address"
        },
        {
          "internalType": "address",
          "name": "to",
          "type": "address"
        },
        {
          "internalType": "uint256",
          "name": "tokenId",
          "type": "uint256"
        },
        {
          "internalType": "bytes",
          "name": "_data",
          "type": "bytes"
        }
      ],
      "name": "safeTransferFrom",
      "outputs": [],
      "stateMutability": "nonpayable",
      "type": "function"
    },
    {
      "inputs": [
        {
          "internalType": "address",
          "name": "operator",
          "type": "address"
        },
        {
          "internalType": "bool",
          "name": "approved",
          "type": "bool"
        }
      ],
      "name": "setApprovalForAll",
      "outputs": [],
      "stateMutability": "nonpayable",
      "type": "function"
    },
    {
      "inputs": [
        {
          "internalType": "bytes4",
          "name": "interfaceId",
          "type": "bytes4"
        }
      ],
      "name": "supportsInterface",
      "outputs": [
        {
          "internalType": "bool",
          "name": "",
          "type": "bool"
        }
      ],
      "stateMutability": "view",
      "type": "function",
      "constant": true
    },
    {
      "inputs": [],
      "name": "symbol",
      "outputs": [
        {
          "internalType": "string",
          "name": "",
          "type": "string"
        }
      ],
      "stateMutability": "view",
      "type": "function",
      "constant": true
    },
    {
      "inputs": [
        {
          "internalType": "uint256",
          "name": "tokenId",
          "type": "uint256"
        }
      ],
      "name": "tokenURI",
      "outputs": [
        {
          "internalType": "string",
          "name": "",
          "type": "string"
        }
      ],
      "stateMutability": "view",
      "type": "function",
      "constant": true
    },
    {
      "inputs": [
        {
          "internalType": "address",
          "name": "from",
          "type": "address"
        },
        {
          "internalType": "address",
          "name": "to",
          "type": "address"
        },
        {
          "internalType": "uint256",
          "name": "tokenId",
          "type": "uint256"
        }
      ],
      "name": "transferFrom",
      "outputs": [],
      "stateMutability": "nonpayable",
      "type": "function"
    },
    {
      "inputs": [
        {
          "internalType": "string",
          "name": "tokenUrl",
          "type": "string"
        },
        {
          "internalType": "string",
          "name": "title",
          "type": "string"
        },
        {
          "internalType": "string",
          "name": "description",
          "type": "string"
        }
      ],
      "name": "createToken",
      "outputs": [
        {
          "internalType": "uint256",
          "name": "",
          "type": "uint256"
        }
      ],
      "stateMutability": "nonpayable",
      "type": "function"
    },
    {
      "inputs": [
        {
          "internalType": "uint256",
          "name": "tokenId",
          "type": "uint256"
        },
        {
          "internalType": "uint256",
          "name": "price",
          "type": "uint256"
        }
      ],
      "name": "createSell",
      "outputs": [],
      "stateMutability": "nonpayable",
      "type": "function"
    },
    {
      "inputs": [
        {
          "internalType": "uint256",
          "name": "tokenId",
          "type": "uint256"
        }
      ],
      "name": "cancelSell",
      "outputs": [],
      "stateMutability": "nonpayable",
      "type": "function"
    },
    {
      "inputs": [
        {
          "internalType": "uint256",
          "name": "tokenId",
          "type": "uint256"
        }
      ],
      "name": "buyNFT",
      "outputs": [],
      "stateMutability": "payable",
      "type": "function",
      "payable": true
    },
    {
      "inputs": [
        {
          "internalType": "uint256",
          "name": "tokenId",
          "type": "uint256"
        },
        {
          "internalType": "uint256",
          "name": "startingPrice",
          "type": "uint256"
        },
        {
          "internalType": "uint256",
          "name": "startTime",
          "type": "uint256"
        },
        {
          "internalType": "uint256",
          "name": "endTime",
          "type": "uint256"
        }
      ],
      "name": "createAuction",
      "outputs": [],
      "stateMutability": "nonpayable",
      "type": "function"
    },
    {
      "inputs": [
        {
          "internalType": "uint256",
          "name": "tokenId",
          "type": "uint256"
        }
      ],
      "name": "cancelAuction",
      "outputs": [],
      "stateMutability": "nonpayable",
      "type": "function"
    },
    {
      "inputs": [
        {
          "internalType": "uint256",
          "name": "auctionId",
          "type": "uint256"
        }
      ],
      "name": "placeBid",
      "outputs": [],
      "stateMutability": "payable",
      "type": "function",
      "payable": true
    },
    {
      "inputs": [
        {
          "internalType": "uint256",
          "name": "tokenId",
          "type": "uint256"
        }
      ],
      "name": "finalizeAuction",
      "outputs": [],
      "stateMutability": "nonpayable",
      "type": "function"
    },
    {
      "inputs": [
        {
          "internalType": "uint256",
          "name": "tokenId",
          "type": "uint256"
        },
        {
          "internalType": "bool",
          "name": "show",
          "type": "bool"
        }
      ],
      "name": "showOnOrOffNFT",
      "outputs": [],
      "stateMutability": "nonpayable",
      "type": "function"
    },
    {
      "inputs": [
        {
          "internalType": "uint256",
          "name": "tokenId",
          "type": "uint256"
        }
      ],
      "name": "getTransactionHistory",
      "outputs": [
        {
          "components": [
            {
              "internalType": "uint256",
              "name": "tokenId",
              "type": "uint256"
            },
            {
              "internalType": "string",
              "name": "action",
              "type": "string"
            },
            {
              "internalType": "address",
              "name": "user",
              "type": "address"
            },
            {
              "internalType": "uint256",
              "name": "timestamp",
              "type": "uint256"
            }
          ],
          "internalType": "struct NFTMarketplace.TransactionHistory[]",
          "name": "",
          "type": "tuple[]"
        }
      ],
      "stateMutability": "view",
      "type": "function",
      "constant": true
    },
    {
      "inputs": [
        {
          "internalType": "uint256",
          "name": "tokenId",
          "type": "uint256"
        }
      ],
      "name": "getNFTDetails",
      "outputs": [
        {
          "components": [
            {
              "internalType": "uint256",
              "name": "tokenId",
              "type": "uint256"
            },
            {
              "internalType": "string",
              "name": "title",
              "type": "string"
            },
            {
              "internalType": "string",
              "name": "description",
              "type": "string"
            },
            {
              "internalType": "address payable",
              "name": "owner",
              "type": "address"
            },
            {
              "internalType": "bool",
              "name": "show",
              "type": "bool"
            },
            {
              "internalType": "string",
              "name": "image",
              "type": "string"
            }
          ],
          "internalType": "struct NFTMarketplace.myNFT",
          "name": "",
          "type": "tuple"
        }
      ],
      "stateMutability": "view",
      "type": "function",
      "constant": true
    },
    {
      "inputs": [
        {
          "internalType": "uint256",
          "name": "tokenId",
          "type": "uint256"
        }
      ],
      "name": "getAuctionDetails",
      "outputs": [
        {
          "components": [
            {
              "internalType": "uint256",
              "name": "tokenId",
              "type": "uint256"
            },
            {
              "internalType": "address payable",
              "name": "seller",
              "type": "address"
            },
            {
              "internalType": "uint256",
              "name": "startingPrice",
              "type": "uint256"
            },
            {
              "internalType": "uint256",
              "name": "highestBid",
              "type": "uint256"
            },
            {
              "internalType": "address payable",
              "name": "highestBidder",
              "type": "address"
            },
            {
              "internalType": "uint256",
              "name": "startTime",
              "type": "uint256"
            },
            {
              "internalType": "uint256",
              "name": "endTime",
              "type": "uint256"
            }
          ],
          "internalType": "struct NFTMarketplace.Auction",
          "name": "",
          "type": "tuple"
        }
      ],
      "stateMutability": "view",
      "type": "function",
      "constant": true
    }
  ],
  "bytecode": "0x60806040523480156200001157600080fd5b506040518060400160405280601581526020017f4e4654204d61726b6574706c61636520546f6b656e00000000000000000000008152506040518060400160405280600481526020017f4e46544d0000000000000000000000000000000000000000000000000000000081525081600090805190602001906200009692919062000101565b508060019080519060200190620000af92919062000101565b505050600160078190555033600a60006101000a81548173ffffffffffffffffffffffffffffffffffffffff021916908373ffffffffffffffffffffffffffffffffffffffff16021790555062000215565b8280546200010f90620001e0565b90600052602060002090601f0160209004810192826200013357600085556200017f565b82601f106200014e57805160ff19168380011785556200017f565b828001600101855582156200017f579182015b828111156200017e57825182559160200191906001019062000161565b5b5090506200018e919062000192565b5090565b5b80821115620001ad57600081600090555060010162000193565b5090565b7f4e487b7100000000000000000000000000000000000000000000000000000000600052602260045260246000fd5b60006002820490506001821680620001f957607f821691505b6020821081036200020f576200020e620001b1565b5b50919050565b6156fb80620002256000396000f3fe6080604052600436106101665760003560e01c80638ff445a6116100d1578063a4144ed21161008a578063e808386311610064578063e80838631461053e578063e985e9c514610567578063f20e5e35146105a4578063f692f5e7146105e157610166565b8063a4144ed2146104af578063b88d4fde146104d8578063c87b56dd1461050157610166565b80638ff445a6146103b057806394aed7d0146103d957806395d89b411461041657806396b5a755146104415780639979ef451461046a578063a22cb4651461048657610166565b806342842e0e1161012357806342842e0e1461028b578063431f21da146102b457806351ed8288146102dd5780636352211e146102f957806370a082311461033657806382260f351461037357610166565b806301ffc9a71461016b57806306fdde03146101a857806307c9cd45146101d3578063081812fc146101fc578063095ea7b31461023957806323b872dd14610262575b600080fd5b34801561017757600080fd5b50610192600480360381019061018d919061382c565b61061e565b60405161019f9190613874565b60405180910390f35b3480156101b457600080fd5b506101bd610700565b6040516101ca9190613928565b60405180910390f35b3480156101df57600080fd5b506101fa60048036038101906101f59190613980565b610792565b005b34801561020857600080fd5b50610223600480360381019061021e9190613980565b610a0d565b60405161023091906139ee565b60405180910390f35b34801561024557600080fd5b50610260600480360381019061025b9190613a35565b610a92565b005b34801561026e57600080fd5b5061028960048036038101906102849190613a75565b610ba9565b005b34801561029757600080fd5b506102b260048036038101906102ad9190613a75565b610c09565b005b3480156102c057600080fd5b506102db60048036038101906102d69190613ac8565b610c29565b005b6102f760048036038101906102f29190613980565b610ef0565b005b34801561030557600080fd5b50610320600480360381019061031b9190613980565b611190565b60405161032d91906139ee565b60405180910390f35b34801561034257600080fd5b5061035d60048036038101906103589190613b2f565b611241565b60405161036a9190613b6b565b60405180910390f35b34801561037f57600080fd5b5061039a60048036038101906103959190613980565b6112f8565b6040516103a79190613ca6565b60405180910390f35b3480156103bc57600080fd5b506103d760048036038101906103d29190613cf4565b611556565b005b3480156103e557600080fd5b5061040060048036038101906103fb9190613e69565b611665565b60405161040d9190613b6b565b60405180910390f35b34801561042257600080fd5b5061042b611926565b6040516104389190613928565b60405180910390f35b34801561044d57600080fd5b5061046860048036038101906104639190613980565b6119b8565b005b610484600480360381019061047f9190613980565b611b5c565b005b34801561049257600080fd5b506104ad60048036038101906104a89190613f10565b611e48565b005b3480156104bb57600080fd5b506104d660048036038101906104d19190613f50565b611e5e565b005b3480156104e457600080fd5b506104ff60048036038101906104fa9190614031565b6120f8565b005b34801561050d57600080fd5b5061052860048036038101906105239190613980565b61215a565b6040516105359190613928565b60405180910390f35b34801561054a57600080fd5b5061056560048036038101906105609190613980565b6122ab565b005b34801561057357600080fd5b5061058e600480360381019061058991906140b4565b612515565b60405161059b9190613874565b60405180910390f35b3480156105b057600080fd5b506105cb60048036038101906105c69190613980565b6125a9565b6040516105d89190614182565b60405180910390f35b3480156105ed57600080fd5b5061060860048036038101906106039190613980565b6126b4565b60405161061591906142d1565b60405180910390f35b60007f80ac58cd000000000000000000000000000000000000000000000000000000007bffffffffffffffffffffffffffffffffffffffffffffffffffffffff1916827bffffffffffffffffffffffffffffffffffffffffffffffffffffffff191614806106e957507f5b5e139f000000000000000000000000000000000000000000000000000000007bffffffffffffffffffffffffffffffffffffffffffffffffffffffff1916827bffffffffffffffffffffffffffffffffffffffffffffffffffffffff1916145b806106f957506106f882612822565b5b9050919050565b60606000805461070f90614322565b80601f016020809104026020016040519081016040528092919081815260200182805461073b90614322565b80156107885780601f1061075d57610100808354040283529160200191610788565b820191906000526020600020905b81548152906001019060200180831161076b57829003601f168201915b5050505050905090565b6000600c600083815260200190815260200160002090503373ffffffffffffffffffffffffffffffffffffffff168160010160009054906101000a900473ffffffffffffffffffffffffffffffffffffffff1673ffffffffffffffffffffffffffffffffffffffff161461083b576040517f08c379a0000000000000000000000000000000000000000000000000000000008152600401610832906143c5565b60405180910390fd5b61086a308260010160009054906101000a900473ffffffffffffffffffffffffffffffffffffffff168461288c565b600b600083815260200190815260200160002060405180608001604052808481526020016040518060400160405280600a81526020017f63616e63656c53656c6c0000000000000000000000000000000000000000000081525081526020013373ffffffffffffffffffffffffffffffffffffffff168152602001428152509080600181540180825580915050600190039060005260206000209060040201600090919091909150600082015181600001556020820151816001019080519060200190610938929190613666565b5060408201518160020160006101000a81548173ffffffffffffffffffffffffffffffffffffffff021916908373ffffffffffffffffffffffffffffffffffffffff16021790555060608201518160030155505061099582612ae7565b8060010160009054906101000a900473ffffffffffffffffffffffffffffffffffffffff1673ffffffffffffffffffffffffffffffffffffffff16827f4d9113a1377d665eaa1f9168a9c9080f2e488cb820b10149de3d6d2e0f2780c76000604051610a01919061442a565b60405180910390a35050565b6000610a1882612c71565b610a57576040517f08c379a0000000000000000000000000000000000000000000000000000000008152600401610a4e906144b7565b60405180910390fd5b6004600083815260200190815260200160002060009054906101000a900473ffffffffffffffffffffffffffffffffffffffff169050919050565b6000610a9d82611190565b90508073ffffffffffffffffffffffffffffffffffffffff168373ffffffffffffffffffffffffffffffffffffffff1603610b0d576040517f08c379a0000000000000000000000000000000000000000000000000000000008152600401610b0490614549565b60405180910390fd5b8073ffffffffffffffffffffffffffffffffffffffff16610b2c612cdd565b73ffffffffffffffffffffffffffffffffffffffff161480610b5b5750610b5a81610b55612cdd565b612515565b5b610b9a576040517f08c379a0000000000000000000000000000000000000000000000000000000008152600401610b91906145db565b60405180910390fd5b610ba48383612ce5565b505050565b610bba610bb4612cdd565b82612d9e565b610bf9576040517f08c379a0000000000000000000000000000000000000000000000000000000008152600401610bf09061466d565b60405180910390fd5b610c0483838361288c565b505050565b610c24838383604051806020016040528060008152506120f8565b505050565b833373ffffffffffffffffffffffffffffffffffffffff16610c4a82611190565b73ffffffffffffffffffffffffffffffffffffffff1614610ca0576040517f08c379a0000000000000000000000000000000000000000000000000000000008152600401610c97906146ff565b60405180910390fd5b60008411610ce3576040517f08c379a0000000000000000000000000000000000000000000000000000000008152600401610cda90614791565b60405180910390fd5b6000600d60008781526020019081526020016000206000015414610d3c576040517f08c379a0000000000000000000000000000000000000000000000000000000008152600401610d3390614823565b60405180910390fd5b610d4585612ae7565b6040518060e001604052808681526020013373ffffffffffffffffffffffffffffffffffffffff16815260200185815260200160008152602001600073ffffffffffffffffffffffffffffffffffffffff16815260200184815260200183815250600d60008781526020019081526020016000206000820151816000015560208201518160010160006101000a81548173ffffffffffffffffffffffffffffffffffffffff021916908373ffffffffffffffffffffffffffffffffffffffff160217905550604082015181600201556060820151816003015560808201518160040160006101000a81548173ffffffffffffffffffffffffffffffffffffffff021916908373ffffffffffffffffffffffffffffffffffffffff16021790555060a0820151816005015560c08201518160060155905050610e87856001611556565b610e9233308761288c565b843073ffffffffffffffffffffffffffffffffffffffff167fd3d4cc8f230826bf4ebd1a2e2904369b0dda86ce1cb1bc8e39ba6f47f91942e08733888888604051610ee1959493929190614843565b60405180910390a35050505050565b600260075403610f35576040517f08c379a0000000000000000000000000000000000000000000000000000000008152600401610f2c906148e2565b60405180910390fd5b60026007819055506000600c6000838152602001908152602001600020905080600201543414610f9a576040517f08c379a0000000000000000000000000000000000000000000000000000000008152600401610f919061494e565b60405180910390fd5b8060010160009054906101000a900473ffffffffffffffffffffffffffffffffffffffff1673ffffffffffffffffffffffffffffffffffffffff166108fc349081150290604051600060405180830381858888f19350505050158015611004573d6000803e3d6000fd5b5061101030338461288c565b61101a6009612e7c565b600b600083815260200190815260200160002060405180608001604052808481526020016040518060400160405280600381526020017f627579000000000000000000000000000000000000000000000000000000000081525081526020013373ffffffffffffffffffffffffffffffffffffffff1681526020014281525090806001815401808255809150506001900390600052602060002090600402016000909190919091506000820151816000015560208201518160010190805190602001906110e8929190613666565b5060408201518160020160006101000a81548173ffffffffffffffffffffffffffffffffffffffff021916908373ffffffffffffffffffffffffffffffffffffffff16021790555060608201518160030155505061114582612ae7565b7f787925e050e8cb8dba61a675397ced37ba5304fc76b70c50b62753eed7c9ef648233836002015460405161117c9392919061496e565b60405180910390a150600160078190555050565b6000806002600084815260200190815260200160002060009054906101000a900473ffffffffffffffffffffffffffffffffffffffff169050600073ffffffffffffffffffffffffffffffffffffffff168173ffffffffffffffffffffffffffffffffffffffff1603611238576040517f08c379a000000000000000000000000000000000000000000000000000000000815260040161122f90614a17565b60405180910390fd5b80915050919050565b60008073ffffffffffffffffffffffffffffffffffffffff168273ffffffffffffffffffffffffffffffffffffffff16036112b1576040517f08c379a00000000000000000000000000000000000000000000000000000000081526004016112a890614aa9565b60405180910390fd5b600360008373ffffffffffffffffffffffffffffffffffffffff1673ffffffffffffffffffffffffffffffffffffffff168152602001908152602001600020549050919050565b6113006136ec565b600e60008381526020019081526020016000206040518060c00160405290816000820154815260200160018201805461133890614322565b80601f016020809104026020016040519081016040528092919081815260200182805461136490614322565b80156113b15780601f10611386576101008083540402835291602001916113b1565b820191906000526020600020905b81548152906001019060200180831161139457829003601f168201915b505050505081526020016002820180546113ca90614322565b80601f01602080910402602001604051908101604052809291908181526020018280546113f690614322565b80156114435780601f1061141857610100808354040283529160200191611443565b820191906000526020600020905b81548152906001019060200180831161142657829003601f168201915b505050505081526020016003820160009054906101000a900473ffffffffffffffffffffffffffffffffffffffff1673ffffffffffffffffffffffffffffffffffffffff1673ffffffffffffffffffffffffffffffffffffffff1681526020016003820160149054906101000a900460ff161515151581526020016004820180546114cd90614322565b80601f01602080910402602001604051908101604052809291908181526020018280546114f990614322565b80156115465780601f1061151b57610100808354040283529160200191611546565b820191906000526020600020905b81548152906001019060200180831161152957829003601f168201915b5050505050815250509050919050565b813373ffffffffffffffffffffffffffffffffffffffff1661157782611190565b73ffffffffffffffffffffffffffffffffffffffff16146115cd576040517f08c379a00000000000000000000000000000000000000000000000000000000081526004016115c4906146ff565b60405180910390fd5b6000600e60008581526020019081526020016000209050828160030160146101000a81548160ff0219169083151502179055507fd0d9a44c40857eb9c9896edd4fb8951a70699e43eba725ec6f86172bbed6ed26848260030160009054906101000a900473ffffffffffffffffffffffffffffffffffffffff168560405161165793929190614ad8565b60405180910390a150505050565b60006116716008612e7c565b600061167d6008612e92565b90506116893382612ea0565b611693818661306d565b6040518060c001604052808281526020018581526020018481526020013373ffffffffffffffffffffffffffffffffffffffff16815260200160011515815260200186815250600e6000838152602001908152602001600020600082015181600001556020820151816001019080519060200190611712929190613666565b50604082015181600201908051906020019061172f929190613666565b5060608201518160030160006101000a81548173ffffffffffffffffffffffffffffffffffffffff021916908373ffffffffffffffffffffffffffffffffffffffff16021790555060808201518160030160146101000a81548160ff02191690831515021790555060a08201518160040190805190602001906117b3929190613666565b50905050600b600082815260200190815260200160002060405180608001604052808381526020016040518060400160405280600681526020017f637265617465000000000000000000000000000000000000000000000000000081525081526020013373ffffffffffffffffffffffffffffffffffffffff168152602001428152509080600181540180825580915050600190039060005260206000209060040201600090919091909150600082015181600001556020820151816001019080519060200190611885929190613666565b5060408201518160020160006101000a81548173ffffffffffffffffffffffffffffffffffffffff021916908373ffffffffffffffffffffffffffffffffffffffff1602179055506060820151816003015550507f5b04f362bedcac9480f3892240327e062838fab228672558698955ce8f9ab38f8185853360018a60405161191396959493929190614b0f565b60405180910390a1809150509392505050565b60606001805461193590614322565b80601f016020809104026020016040519081016040528092919081815260200182805461196190614322565b80156119ae5780601f10611983576101008083540402835291602001916119ae565b820191906000526020600020905b81548152906001019060200180831161199157829003601f168201915b5050505050905090565b6000600d600083815260200190815260200160002090503373ffffffffffffffffffffffffffffffffffffffff168160010160009054906101000a900473ffffffffffffffffffffffffffffffffffffffff1673ffffffffffffffffffffffffffffffffffffffff1614611a61576040517f08c379a0000000000000000000000000000000000000000000000000000000008152600401611a58906143c5565b60405180910390fd5b6000816003015414611aa8576040517f08c379a0000000000000000000000000000000000000000000000000000000008152600401611a9f90614bf7565b60405180910390fd5b611adb308260010160009054906101000a900473ffffffffffffffffffffffffffffffffffffffff16836000015461288c565b611ae482612ae7565b8060010160009054906101000a900473ffffffffffffffffffffffffffffffffffffffff1673ffffffffffffffffffffffffffffffffffffffff16827f4d9113a1377d665eaa1f9168a9c9080f2e488cb820b10149de3d6d2e0f2780c76000604051611b50919061442a565b60405180910390a35050565b600260075403611ba1576040517f08c379a0000000000000000000000000000000000000000000000000000000008152600401611b98906148e2565b60405180910390fd5b60026007819055506000600d6000838152602001908152602001600020905080600601544210611c06576040517f08c379a0000000000000000000000000000000000000000000000000000000008152600401611bfd90614c63565b60405180910390fd5b80600501544211611c4c576040517f08c379a0000000000000000000000000000000000000000000000000000000008152600401611c4390614ccf565b60405180910390fd5b80600301543411611c92576040517f08c379a0000000000000000000000000000000000000000000000000000000008152600401611c8990614d61565b60405180910390fd5b8060020154341015611cd9576040517f08c379a0000000000000000000000000000000000000000000000000000000008152600401611cd090614df3565b60405180910390fd5b600073ffffffffffffffffffffffffffffffffffffffff168160040160009054906101000a900473ffffffffffffffffffffffffffffffffffffffff1673ffffffffffffffffffffffffffffffffffffffff1614611da1578060040160009054906101000a900473ffffffffffffffffffffffffffffffffffffffff1673ffffffffffffffffffffffffffffffffffffffff166108fc82600301549081150290604051600060405180830381858888f19350505050158015611d9f573d6000803e3d6000fd5b505b348160030181905550338160040160006101000a81548173ffffffffffffffffffffffffffffffffffffffff021916908373ffffffffffffffffffffffffffffffffffffffff1602179055503373ffffffffffffffffffffffffffffffffffffffff16827f0e54eff26401bf69b81b26f60bd85ef47f5d85275c1d268d84f68d6897431c4734604051611e349190613b6b565b60405180910390a350600160078190555050565b611e5a611e53612cdd565b83836130e1565b5050565b813373ffffffffffffffffffffffffffffffffffffffff16611e7f82611190565b73ffffffffffffffffffffffffffffffffffffffff1614611ed5576040517f08c379a0000000000000000000000000000000000000000000000000000000008152600401611ecc906146ff565b60405180910390fd5b611ede83612ae7565b611ee9836001611556565b611ef433308561288c565b60405180606001604052808481526020013373ffffffffffffffffffffffffffffffffffffffff16815260200183815250600c60008581526020019081526020016000206000820151816000015560208201518160010160006101000a81548173ffffffffffffffffffffffffffffffffffffffff021916908373ffffffffffffffffffffffffffffffffffffffff16021790555060408201518160020155905050600b600084815260200190815260200160002060405180608001604052808581526020016040518060400160405280600481526020017f73656c6c0000000000000000000000000000000000000000000000000000000081525081526020013373ffffffffffffffffffffffffffffffffffffffff168152602001428152509080600181540180825580915050600190039060005260206000209060040201600090919091909150600082015181600001556020820151816001019080519060200190612064929190613666565b5060408201518160020160006101000a81548173ffffffffffffffffffffffffffffffffffffffff021916908373ffffffffffffffffffffffffffffffffffffffff1602179055506060820151816003015550507fec759846c972e2aa7c351c68392f7388dfb8511b1d2be0ee4cdfbc50011f71528333846040516120eb9392919061496e565b60405180910390a1505050565b612109612103612cdd565b83612d9e565b612148576040517f08c379a000000000000000000000000000000000000000000000000000000000815260040161213f9061466d565b60405180910390fd5b6121548484848461324d565b50505050565b606061216582612c71565b6121a4576040517f08c379a000000000000000000000000000000000000000000000000000000000815260040161219b90614e85565b60405180910390fd5b60006006600084815260200190815260200160002080546121c490614322565b80601f01602080910402602001604051908101604052809291908181526020018280546121f090614322565b801561223d5780601f106122125761010080835404028352916020019161223d565b820191906000526020600020905b81548152906001019060200180831161222057829003601f168201915b50505050509050600061224e6132a9565b905060008151036122635781925050506122a6565b600082511115612298578082604051602001612280929190614ee1565b604051602081830303815290604052925050506122a6565b6122a1846132c0565b925050505b919050565b6002600754036122f0576040517f08c379a00000000000000000000000000000000000000000000000000000000081526004016122e7906148e2565b60405180910390fd5b60026007819055506000600d600083815260200190815260200160002090508060060154421015612356576040517f08c379a000000000000000000000000000000000000000000000000000000000815260040161234d90614f51565b60405180910390fd5b600073ffffffffffffffffffffffffffffffffffffffff168160040160009054906101000a900473ffffffffffffffffffffffffffffffffffffffff1673ffffffffffffffffffffffffffffffffffffffff16146124cc576123e1308260040160009054906101000a900473ffffffffffffffffffffffffffffffffffffffff16836000015461288c565b8060010160009054906101000a900473ffffffffffffffffffffffffffffffffffffffff1673ffffffffffffffffffffffffffffffffffffffff166108fc82600301549081150290604051600060405180830381858888f1935050505015801561244f573d6000803e3d6000fd5b508060040160009054906101000a900473ffffffffffffffffffffffffffffffffffffffff1673ffffffffffffffffffffffffffffffffffffffff16827f4d9113a1377d665eaa1f9168a9c9080f2e488cb820b10149de3d6d2e0f2780c783600301546040516124bf9190613b6b565b60405180910390a3612500565b6124ff308260010160009054906101000a900473ffffffffffffffffffffffffffffffffffffffff16836000015461288c565b5b61250982612ae7565b50600160078190555050565b6000600560008473ffffffffffffffffffffffffffffffffffffffff1673ffffffffffffffffffffffffffffffffffffffff16815260200190815260200160002060008373ffffffffffffffffffffffffffffffffffffffff1673ffffffffffffffffffffffffffffffffffffffff16815260200190815260200160002060009054906101000a900460ff16905092915050565b6125b161373a565b600d60008381526020019081526020016000206040518060e0016040529081600082015481526020016001820160009054906101000a900473ffffffffffffffffffffffffffffffffffffffff1673ffffffffffffffffffffffffffffffffffffffff1673ffffffffffffffffffffffffffffffffffffffff16815260200160028201548152602001600382015481526020016004820160009054906101000a900473ffffffffffffffffffffffffffffffffffffffff1673ffffffffffffffffffffffffffffffffffffffff1673ffffffffffffffffffffffffffffffffffffffff168152602001600582015481526020016006820154815250509050919050565b6060600b6000838152602001908152602001600020805480602002602001604051908101604052809291908181526020016000905b8282101561281757838290600052602060002090600402016040518060800160405290816000820154815260200160018201805461272690614322565b80601f016020809104026020016040519081016040528092919081815260200182805461275290614322565b801561279f5780601f106127745761010080835404028352916020019161279f565b820191906000526020600020905b81548152906001019060200180831161278257829003601f168201915b505050505081526020016002820160009054906101000a900473ffffffffffffffffffffffffffffffffffffffff1673ffffffffffffffffffffffffffffffffffffffff1673ffffffffffffffffffffffffffffffffffffffff168152602001600382015481525050815260200190600101906126e9565b505050509050919050565b60007f01ffc9a7000000000000000000000000000000000000000000000000000000007bffffffffffffffffffffffffffffffffffffffffffffffffffffffff1916827bffffffffffffffffffffffffffffffffffffffffffffffffffffffff1916149050919050565b8273ffffffffffffffffffffffffffffffffffffffff166128ac82611190565b73ffffffffffffffffffffffffffffffffffffffff1614612902576040517f08c379a00000000000000000000000000000000000000000000000000000000081526004016128f990614fe3565b60405180910390fd5b600073ffffffffffffffffffffffffffffffffffffffff168273ffffffffffffffffffffffffffffffffffffffff1603612971576040517f08c379a000000000000000000000000000000000000000000000000000000000815260040161296890615075565b60405180910390fd5b61297c838383613367565b612987600082612ce5565b6001600360008573ffffffffffffffffffffffffffffffffffffffff1673ffffffffffffffffffffffffffffffffffffffff16815260200190815260200160002060008282546129d791906150c4565b925050819055506001600360008473ffffffffffffffffffffffffffffffffffffffff1673ffffffffffffffffffffffffffffffffffffffff1681526020019081526020016000206000828254612a2e91906150f8565b92505081905550816002600083815260200190815260200160002060006101000a81548173ffffffffffffffffffffffffffffffffffffffff021916908373ffffffffffffffffffffffffffffffffffffffff160217905550808273ffffffffffffffffffffffffffffffffffffffff168473ffffffffffffffffffffffffffffffffffffffff167fddf252ad1be2c89b69c2b068fc378daa952ba7f163c4a11628f55a4df523b3ef60405160405180910390a4505050565b6000600c6000838152602001908152602001600020600201541115612b8b57600c60008281526020019081526020016000206000808201600090556001820160006101000a81549073ffffffffffffffffffffffffffffffffffffffff0219169055600282016000905550507fbc80a5109fd83a9d22362c3fa42bae8ef6c2d5ffcdf82577535d7ea72a1ee45d81604051612b829190613b6b565b60405180910390a15b6000600d6000838152602001908152602001600020600301541115612c6e57600d60008281526020019081526020016000206000808201600090556001820160006101000a81549073ffffffffffffffffffffffffffffffffffffffff0219169055600282016000905560038201600090556004820160006101000a81549073ffffffffffffffffffffffffffffffffffffffff02191690556005820160009055600682016000905550507f656f1661957c320f5f7c4148f42b58b8645550e0f43d901435d7d536cb2018c481604051612c659190613b6b565b60405180910390a15b50565b60008073ffffffffffffffffffffffffffffffffffffffff166002600084815260200190815260200160002060009054906101000a900473ffffffffffffffffffffffffffffffffffffffff1673ffffffffffffffffffffffffffffffffffffffff1614159050919050565b600033905090565b816004600083815260200190815260200160002060006101000a81548173ffffffffffffffffffffffffffffffffffffffff021916908373ffffffffffffffffffffffffffffffffffffffff160217905550808273ffffffffffffffffffffffffffffffffffffffff16612d5883611190565b73ffffffffffffffffffffffffffffffffffffffff167f8c5be1e5ebec7d5bd14f71427d1e84f3dd0314c0f7b2291e5b200ac8c7c3b92560405160405180910390a45050565b6000612da982612c71565b612de8576040517f08c379a0000000000000000000000000000000000000000000000000000000008152600401612ddf906151c0565b60405180910390fd5b6000612df383611190565b90508073ffffffffffffffffffffffffffffffffffffffff168473ffffffffffffffffffffffffffffffffffffffff161480612e6257508373ffffffffffffffffffffffffffffffffffffffff16612e4a84610a0d565b73ffffffffffffffffffffffffffffffffffffffff16145b80612e735750612e728185612515565b5b91505092915050565b6001816000016000828254019250508190555050565b600081600001549050919050565b600073ffffffffffffffffffffffffffffffffffffffff168273ffffffffffffffffffffffffffffffffffffffff1603612f0f576040517f08c379a0000000000000000000000000000000000000000000000000000000008152600401612f069061522c565b60405180910390fd5b612f1881612c71565b15612f58576040517f08c379a0000000000000000000000000000000000000000000000000000000008152600401612f4f90615298565b60405180910390fd5b612f6460008383613367565b6001600360008473ffffffffffffffffffffffffffffffffffffffff1673ffffffffffffffffffffffffffffffffffffffff1681526020019081526020016000206000828254612fb491906150f8565b92505081905550816002600083815260200190815260200160002060006101000a81548173ffffffffffffffffffffffffffffffffffffffff021916908373ffffffffffffffffffffffffffffffffffffffff160217905550808273ffffffffffffffffffffffffffffffffffffffff16600073ffffffffffffffffffffffffffffffffffffffff167fddf252ad1be2c89b69c2b068fc378daa952ba7f163c4a11628f55a4df523b3ef60405160405180910390a45050565b61307682612c71565b6130b5576040517f08c379a00000000000000000000000000000000000000000000000000000000081526004016130ac9061532a565b60405180910390fd5b806006600084815260200190815260200160002090805190602001906130dc929190613666565b505050565b8173ffffffffffffffffffffffffffffffffffffffff168373ffffffffffffffffffffffffffffffffffffffff160361314f576040517f08c379a000000000000000000000000000000000000000000000000000000000815260040161314690615396565b60405180910390fd5b80600560008573ffffffffffffffffffffffffffffffffffffffff1673ffffffffffffffffffffffffffffffffffffffff16815260200190815260200160002060008473ffffffffffffffffffffffffffffffffffffffff1673ffffffffffffffffffffffffffffffffffffffff16815260200190815260200160002060006101000a81548160ff0219169083151502179055508173ffffffffffffffffffffffffffffffffffffffff168373ffffffffffffffffffffffffffffffffffffffff167f17307eab39ab6107e8899845ad3d59bd9653f200f220920489ca2b5937696c31836040516132409190613874565b60405180910390a3505050565b61325884848461288c565b6132648484848461336c565b6132a3576040517f08c379a000000000000000000000000000000000000000000000000000000000815260040161329a90615428565b60405180910390fd5b50505050565b606060405180602001604052806000815250905090565b60606132cb82612c71565b61330a576040517f08c379a0000000000000000000000000000000000000000000000000000000008152600401613301906154ba565b60405180910390fd5b60006133146132a9565b90506000815111613334576040518060200160405280600081525061335f565b8061333e846134f3565b60405160200161334f929190614ee1565b6040516020818303038152906040525b915050919050565b505050565b600061338d8473ffffffffffffffffffffffffffffffffffffffff16613653565b156134e6578373ffffffffffffffffffffffffffffffffffffffff1663150b7a026133b6612cdd565b8786866040518563ffffffff1660e01b81526004016133d8949392919061552f565b6020604051808303816000875af192505050801561341457506040513d601f19601f820116820180604052508101906134119190615590565b60015b613496573d8060008114613444576040519150601f19603f3d011682016040523d82523d6000602084013e613449565b606091505b50600081510361348e576040517f08c379a000000000000000000000000000000000000000000000000000000000815260040161348590615428565b60405180910390fd5b805181602001fd5b63150b7a0260e01b7bffffffffffffffffffffffffffffffffffffffffffffffffffffffff1916817bffffffffffffffffffffffffffffffffffffffffffffffffffffffff1916149150506134eb565b600190505b949350505050565b60606000820361353a576040518060400160405280600181526020017f3000000000000000000000000000000000000000000000000000000000000000815250905061364e565b600082905060005b6000821461356c578080613555906155bd565b915050600a826135659190615634565b9150613542565b60008167ffffffffffffffff81111561358857613587613d3e565b5b6040519080825280601f01601f1916602001820160405280156135ba5781602001600182028036833780820191505090505b5090505b60008514613647576001826135d391906150c4565b9150600a856135e29190615665565b60306135ee91906150f8565b60f81b81838151811061360457613603615696565b5b60200101907effffffffffffffffffffffffffffffffffffffffffffffffffffffffffffff1916908160001a905350600a856136409190615634565b94506135be565b8093505050505b919050565b600080823b905060008111915050919050565b82805461367290614322565b90600052602060002090601f01602090048101928261369457600085556136db565b82601f106136ad57805160ff19168380011785556136db565b828001600101855582156136db579182015b828111156136da5782518255916020019190600101906136bf565b5b5090506136e891906137a3565b5090565b6040518060c00160405280600081526020016060815260200160608152602001600073ffffffffffffffffffffffffffffffffffffffff168152602001600015158152602001606081525090565b6040518060e0016040528060008152602001600073ffffffffffffffffffffffffffffffffffffffff1681526020016000815260200160008152602001600073ffffffffffffffffffffffffffffffffffffffff16815260200160008152602001600081525090565b5b808211156137bc5760008160009055506001016137a4565b5090565b6000604051905090565b600080fd5b600080fd5b60007fffffffff0000000000000000000000000000000000000000000000000000000082169050919050565b613809816137d4565b811461381457600080fd5b50565b60008135905061382681613800565b92915050565b600060208284031215613842576138416137ca565b5b600061385084828501613817565b91505092915050565b60008115159050919050565b61386e81613859565b82525050565b60006020820190506138896000830184613865565b92915050565b600081519050919050565b600082825260208201905092915050565b60005b838110156138c95780820151818401526020810190506138ae565b838111156138d8576000848401525b50505050565b6000601f19601f8301169050919050565b60006138fa8261388f565b613904818561389a565b93506139148185602086016138ab565b61391d816138de565b840191505092915050565b6000602082019050818103600083015261394281846138ef565b905092915050565b6000819050919050565b61395d8161394a565b811461396857600080fd5b50565b60008135905061397a81613954565b92915050565b600060208284031215613996576139956137ca565b5b60006139a48482850161396b565b91505092915050565b600073ffffffffffffffffffffffffffffffffffffffff82169050919050565b60006139d8826139ad565b9050919050565b6139e8816139cd565b82525050565b6000602082019050613a0360008301846139df565b92915050565b613a12816139cd565b8114613a1d57600080fd5b50565b600081359050613a2f81613a09565b92915050565b60008060408385031215613a4c57613a4b6137ca565b5b6000613a5a85828601613a20565b9250506020613a6b8582860161396b565b9150509250929050565b600080600060608486031215613a8e57613a8d6137ca565b5b6000613a9c86828701613a20565b9350506020613aad86828701613a20565b9250506040613abe8682870161396b565b9150509250925092565b60008060008060808587031215613ae257613ae16137ca565b5b6000613af08782880161396b565b9450506020613b018782880161396b565b9350506040613b128782880161396b565b9250506060613b238782880161396b565b91505092959194509250565b600060208284031215613b4557613b446137ca565b5b6000613b5384828501613a20565b91505092915050565b613b658161394a565b82525050565b6000602082019050613b806000830184613b5c565b92915050565b613b8f8161394a565b82525050565b600082825260208201905092915050565b6000613bb18261388f565b613bbb8185613b95565b9350613bcb8185602086016138ab565b613bd4816138de565b840191505092915050565b6000613bea826139ad565b9050919050565b613bfa81613bdf565b82525050565b613c0981613859565b82525050565b600060c083016000830151613c276000860182613b86565b5060208301518482036020860152613c3f8282613ba6565b91505060408301518482036040860152613c598282613ba6565b9150506060830151613c6e6060860182613bf1565b506080830151613c816080860182613c00565b5060a083015184820360a0860152613c998282613ba6565b9150508091505092915050565b60006020820190508181036000830152613cc08184613c0f565b905092915050565b613cd181613859565b8114613cdc57600080fd5b50565b600081359050613cee81613cc8565b92915050565b60008060408385031215613d0b57613d0a6137ca565b5b6000613d198582860161396b565b9250506020613d2a85828601613cdf565b9150509250929050565b600080fd5b600080fd5b7f4e487b7100000000000000000000000000000000000000000000000000000000600052604160045260246000fd5b613d76826138de565b810181811067ffffffffffffffff82111715613d9557613d94613d3e565b5b80604052505050565b6000613da86137c0565b9050613db48282613d6d565b919050565b600067ffffffffffffffff821115613dd457613dd3613d3e565b5b613ddd826138de565b9050602081019050919050565b82818337600083830152505050565b6000613e0c613e0784613db9565b613d9e565b905082815260208101848484011115613e2857613e27613d39565b5b613e33848285613dea565b509392505050565b600082601f830112613e5057613e4f613d34565b5b8135613e60848260208601613df9565b91505092915050565b600080600060608486031215613e8257613e816137ca565b5b600084013567ffffffffffffffff811115613ea057613e9f6137cf565b5b613eac86828701613e3b565b935050602084013567ffffffffffffffff811115613ecd57613ecc6137cf565b5b613ed986828701613e3b565b925050604084013567ffffffffffffffff811115613efa57613ef96137cf565b5b613f0686828701613e3b565b9150509250925092565b60008060408385031215613f2757613f266137ca565b5b6000613f3585828601613a20565b9250506020613f4685828601613cdf565b9150509250929050565b60008060408385031215613f6757613f666137ca565b5b6000613f758582860161396b565b9250506020613f868582860161396b565b9150509250929050565b600067ffffffffffffffff821115613fab57613faa613d3e565b5b613fb4826138de565b9050602081019050919050565b6000613fd4613fcf84613f90565b613d9e565b905082815260208101848484011115613ff057613fef613d39565b5b613ffb848285613dea565b509392505050565b600082601f83011261401857614017613d34565b5b8135614028848260208601613fc1565b91505092915050565b6000806000806080858703121561404b5761404a6137ca565b5b600061405987828801613a20565b945050602061406a87828801613a20565b935050604061407b8782880161396b565b925050606085013567ffffffffffffffff81111561409c5761409b6137cf565b5b6140a887828801614003565b91505092959194509250565b600080604083850312156140cb576140ca6137ca565b5b60006140d985828601613a20565b92505060206140ea85828601613a20565b9150509250929050565b60e08201600082015161410a6000850182613b86565b50602082015161411d6020850182613bf1565b5060408201516141306040850182613b86565b5060608201516141436060850182613b86565b5060808201516141566080850182613bf1565b5060a082015161416960a0850182613b86565b5060c082015161417c60c0850182613b86565b50505050565b600060e08201905061419760008301846140f4565b92915050565b600081519050919050565b600082825260208201905092915050565b6000819050602082019050919050565b6141d2816139cd565b82525050565b60006080830160008301516141f06000860182613b86565b50602083015184820360208601526142088282613ba6565b915050604083015161421d60408601826141c9565b5060608301516142306060860182613b86565b508091505092915050565b600061424783836141d8565b905092915050565b6000602082019050919050565b60006142678261419d565b61427181856141a8565b935083602082028501614283856141b9565b8060005b858110156142bf57848403895281516142a0858261423b565b94506142ab8361424f565b925060208a01995050600181019050614287565b50829750879550505050505092915050565b600060208201905081810360008301526142eb818461425c565b905092915050565b7f4e487b7100000000000000000000000000000000000000000000000000000000600052602260045260246000fd5b6000600282049050600182168061433a57607f821691505b60208210810361434d5761434c6142f3565b5b50919050565b7f4f6e6c79207468652073656c6c65722063616e2063616e63656c20746865206160008201527f756374696f6e2e00000000000000000000000000000000000000000000000000602082015250565b60006143af60278361389a565b91506143ba82614353565b604082019050919050565b600060208201905081810360008301526143de816143a2565b9050919050565b6000819050919050565b6000819050919050565b600061441461440f61440a846143e5565b6143ef565b61394a565b9050919050565b614424816143f9565b82525050565b600060208201905061443f600083018461441b565b92915050565b7f4552433732313a20617070726f76656420717565727920666f72206e6f6e657860008201527f697374656e7420746f6b656e0000000000000000000000000000000000000000602082015250565b60006144a1602c8361389a565b91506144ac82614445565b604082019050919050565b600060208201905081810360008301526144d081614494565b9050919050565b7f4552433732313a20617070726f76616c20746f2063757272656e74206f776e6560008201527f7200000000000000000000000000000000000000000000000000000000000000602082015250565b600061453360218361389a565b915061453e826144d7565b604082019050919050565b6000602082019050818103600083015261456281614526565b9050919050565b7f4552433732313a20617070726f76652063616c6c6572206973206e6f74206f7760008201527f6e6572206e6f7220617070726f76656420666f7220616c6c0000000000000000602082015250565b60006145c560388361389a565b91506145d082614569565b604082019050919050565b600060208201905081810360008301526145f4816145b8565b9050919050565b7f4552433732313a207472616e736665722063616c6c6572206973206e6f74206f60008201527f776e6572206e6f7220617070726f766564000000000000000000000000000000602082015250565b600061465760318361389a565b9150614662826145fb565b604082019050919050565b600060208201905081810360008301526146868161464a565b9050919050565b7f43616c6c6572206973206e6f7420746865206f776e6572206f6620746869732060008201527f746f6b656e000000000000000000000000000000000000000000000000000000602082015250565b60006146e960258361389a565b91506146f48261468d565b604082019050919050565b60006020820190508181036000830152614718816146dc565b9050919050565b7f5374617274696e67207072696365206d7573742062652067726561746572207460008201527f68616e207a65726f000000000000000000000000000000000000000000000000602082015250565b600061477b60288361389a565b91506147868261471f565b604082019050919050565b600060208201905081810360008301526147aa8161476e565b9050919050565b7f41756374696f6e20616c72656164792065786973747320666f7220746869732060008201527f746f6b656e000000000000000000000000000000000000000000000000000000602082015250565b600061480d60258361389a565b9150614818826147b1565b604082019050919050565b6000602082019050818103600083015261483c81614800565b9050919050565b600060a0820190506148586000830188613b5c565b61486560208301876139df565b6148726040830186613b5c565b61487f6060830185613b5c565b61488c6080830184613b5c565b9695505050505050565b7f5265656e7472616e637947756172643a207265656e7472616e742063616c6c00600082015250565b60006148cc601f8361389a565b91506148d782614896565b602082019050919050565b600060208201905081810360008301526148fb816148bf565b9050919050565b7f506c65617365207375626d6974207468652061736b696e672070726963650000600082015250565b6000614938601e8361389a565b915061494382614902565b602082019050919050565b600060208201905081810360008301526149678161492b565b9050919050565b60006060820190506149836000830186613b5c565b61499060208301856139df565b61499d6040830184613b5c565b949350505050565b7f4552433732313a206f776e657220717565727920666f72206e6f6e657869737460008201527f656e7420746f6b656e0000000000000000000000000000000000000000000000602082015250565b6000614a0160298361389a565b9150614a0c826149a5565b604082019050919050565b60006020820190508181036000830152614a30816149f4565b9050919050565b7f4552433732313a2062616c616e636520717565727920666f7220746865207a6560008201527f726f206164647265737300000000000000000000000000000000000000000000602082015250565b6000614a93602a8361389a565b9150614a9e82614a37565b604082019050919050565b60006020820190508181036000830152614ac281614a86565b9050919050565b614ad281613bdf565b82525050565b6000606082019050614aed6000830186613b5c565b614afa6020830185614ac9565b614b076040830184613865565b949350505050565b600060c082019050614b246000830189613b5c565b8181036020830152614b3681886138ef565b90508181036040830152614b4a81876138ef565b9050614b596060830186614ac9565b614b666080830185613865565b81810360a0830152614b7881846138ef565b9050979650505050505050565b7f43616e6e6f742063616e63656c207468652061756374696f6e2061667465722060008201527f612062696420686173206265656e20706c616365642e00000000000000000000602082015250565b6000614be160368361389a565b9150614bec82614b85565b604082019050919050565b60006020820190508181036000830152614c1081614bd4565b9050919050565b7f41756374696f6e2068617320656e646564000000000000000000000000000000600082015250565b6000614c4d60118361389a565b9150614c5882614c17565b602082019050919050565b60006020820190508181036000830152614c7c81614c40565b9050919050565b7f41756374696f6e206e6f74207374617274656400000000000000000000000000600082015250565b6000614cb960138361389a565b9150614cc482614c83565b602082019050919050565b60006020820190508181036000830152614ce881614cac565b9050919050565b7f426964206d75737420626520686967686572207468616e20746865206375727260008201527f656e742068696768657374206269640000000000000000000000000000000000602082015250565b6000614d4b602f8361389a565b9150614d5682614cef565b604082019050919050565b60006020820190508181036000830152614d7a81614d3e565b9050919050565b7f426964206d757374206265206174206c6561737420746865207374617274696e60008201527f6720707269636500000000000000000000000000000000000000000000000000602082015250565b6000614ddd60278361389a565b9150614de882614d81565b604082019050919050565b60006020820190508181036000830152614e0c81614dd0565b9050919050565b7f45524337323155524953746f726167653a2055524920717565727920666f722060008201527f6e6f6e6578697374656e7420746f6b656e000000000000000000000000000000602082015250565b6000614e6f60318361389a565b9150614e7a82614e13565b604082019050919050565b60006020820190508181036000830152614e9e81614e62565b9050919050565b600081905092915050565b6000614ebb8261388f565b614ec58185614ea5565b9350614ed58185602086016138ab565b80840191505092915050565b6000614eed8285614eb0565b9150614ef98284614eb0565b91508190509392505050565b7f41756374696f6e20686173206e6f7420656e6465642079657400000000000000600082015250565b6000614f3b60198361389a565b9150614f4682614f05565b602082019050919050565b60006020820190508181036000830152614f6a81614f2e565b9050919050565b7f4552433732313a207472616e73666572206f6620746f6b656e2074686174206960008201527f73206e6f74206f776e0000000000000000000000000000000000000000000000602082015250565b6000614fcd60298361389a565b9150614fd882614f71565b604082019050919050565b60006020820190508181036000830152614ffc81614fc0565b9050919050565b7f4552433732313a207472616e7366657220746f20746865207a65726f2061646460008201527f7265737300000000000000000000000000000000000000000000000000000000602082015250565b600061505f60248361389a565b915061506a82615003565b604082019050919050565b6000602082019050818103600083015261508e81615052565b9050919050565b7f4e487b7100000000000000000000000000000000000000000000000000000000600052601160045260246000fd5b60006150cf8261394a565b91506150da8361394a565b9250828210156150ed576150ec615095565b5b828203905092915050565b60006151038261394a565b915061510e8361394a565b9250827fffffffffffffffffffffffffffffffffffffffffffffffffffffffffffffffff0382111561514357615142615095565b5b828201905092915050565b7f4552433732313a206f70657261746f7220717565727920666f72206e6f6e657860008201527f697374656e7420746f6b656e0000000000000000000000000000000000000000602082015250565b60006151aa602c8361389a565b91506151b58261514e565b604082019050919050565b600060208201905081810360008301526151d98161519d565b9050919050565b7f4552433732313a206d696e7420746f20746865207a65726f2061646472657373600082015250565b600061521660208361389a565b9150615221826151e0565b602082019050919050565b6000602082019050818103600083015261524581615209565b9050919050565b7f4552433732313a20746f6b656e20616c7265616479206d696e74656400000000600082015250565b6000615282601c8361389a565b915061528d8261524c565b602082019050919050565b600060208201905081810360008301526152b181615275565b9050919050565b7f45524337323155524953746f726167653a2055524920736574206f66206e6f6e60008201527f6578697374656e7420746f6b656e000000000000000000000000000000000000602082015250565b6000615314602e8361389a565b915061531f826152b8565b604082019050919050565b6000602082019050818103600083015261534381615307565b9050919050565b7f4552433732313a20617070726f766520746f2063616c6c657200000000000000600082015250565b600061538060198361389a565b915061538b8261534a565b602082019050919050565b600060208201905081810360008301526153af81615373565b9050919050565b7f4552433732313a207472616e7366657220746f206e6f6e20455243373231526560008201527f63656976657220696d706c656d656e7465720000000000000000000000000000602082015250565b600061541260328361389a565b915061541d826153b6565b604082019050919050565b6000602082019050818103600083015261544181615405565b9050919050565b7f4552433732314d657461646174613a2055524920717565727920666f72206e6f60008201527f6e6578697374656e7420746f6b656e0000000000000000000000000000000000602082015250565b60006154a4602f8361389a565b91506154af82615448565b604082019050919050565b600060208201905081810360008301526154d381615497565b9050919050565b600081519050919050565b600082825260208201905092915050565b6000615501826154da565b61550b81856154e5565b935061551b8185602086016138ab565b615524816138de565b840191505092915050565b600060808201905061554460008301876139df565b61555160208301866139df565b61555e6040830185613b5c565b818103606083015261557081846154f6565b905095945050505050565b60008151905061558a81613800565b92915050565b6000602082840312156155a6576155a56137ca565b5b60006155b48482850161557b565b91505092915050565b60006155c88261394a565b91507fffffffffffffffffffffffffffffffffffffffffffffffffffffffffffffffff82036155fa576155f9615095565b5b600182019050919050565b7f4e487b7100000000000000000000000000000000000000000000000000000000600052601260045260246000fd5b600061563f8261394a565b915061564a8361394a565b92508261565a57615659615605565b5b828204905092915050565b60006156708261394a565b915061567b8361394a565b92508261568b5761568a615605565b5b828206905092915050565b7f4e487b7100000000000000000000000000000000000000000000000000000000600052603260045260246000fdfea2646970667358221220c36597d4d34e405179967f3924e3b1e11ad7cd074fadcd0226c4887bc6af394564736f6c634300080d0033",
  "immutableReferences": {},
  "source": "// SPDX-License-Identifier: Unlicense\npragma solidity ^0.8.0;\n\nimport \"@openzeppelin/contracts/utils/Counters.sol\";\nimport \"@openzeppelin/contracts/token/ERC721/extensions/ERC721URIStorage.sol\";\nimport \"@openzeppelin/contracts/security/ReentrancyGuard.sol\";\n\ncontract NFTMarketplace is ERC721URIStorage, ReentrancyGuard {\n    using Counters for Counters.Counter;\n\n    Counters.Counter private _tokenIds; \n    Counters.Counter private _itemsSold;\n\n    address payable owner;\n\n    struct myNFT {\n        uint256 tokenId;\n        string title;\n        string description;\n        address payable owner; \n        bool show;\n        string image;\n    }\n\n    struct MarketItem {\n        uint256 tokenId;\n        address payable seller;\n        uint256 price;\n    }\n\n    struct Auction {\n        uint256 tokenId;\n        address payable seller;\n        uint256 startingPrice;\n        uint256 highestBid;\n        address payable highestBidder;\n        uint256 startTime;\n        uint256 endTime;\n    }\n\n    struct TransactionHistory {\n        uint256 tokenId;\n        string action; // e.g., \"create\", \"buy\", \"sell\", \"cancel\"\n        address user;\n        uint256 timestamp;\n    }\n\n    mapping(uint256 => TransactionHistory[]) private transactionHistories; // Transaction history for each tokenId\n    mapping(uint256 => MarketItem) private idMarketItem;\n    mapping(uint256 => Auction) private idAuctions;\n    mapping(uint256 => myNFT) private idNFTs;\n\n    event MarketItemCreated(uint256 tokenId, address seller, uint256 price);\n    event AuctionCreated(uint256 auctionId, address indexed nftContract, uint256 indexed tokenId, address seller, uint256 startingPrice, uint256 startTime, uint256 endTime);\n    event BidPlaced(uint256 indexed auctionId, address indexed bidder, uint256 bidAmount);\n    event AuctionFinalized(uint256 indexed auctionId, address indexed winner, uint256 finalAmount);\n    event TokenBought(uint256 tokenId, address buyer, uint256 price);\n    event SellItemDeleted(uint256 tokenId);\n    event AuctionDeleted(uint256 tokenId);\n    event CreateListMyNFT(uint256 tokenId, string title, string description, address payable owner, bool show, string image);\n    event UpdateListMyNFT(uint256 tokenId, address payable owner, bool show);\n\n    modifier onlyOwnerOfToken(uint256 tokenId) {\n        require(ownerOf(tokenId) == msg.sender, \"Caller is not the owner of this token\");\n        _;\n    }\n\n    constructor() ERC721(\"NFT Marketplace Token\", \"NFTM\") {\n        owner = payable(msg.sender);\n    }\n\n    function deleteTokenSell(uint256 tokenId) private {\n        // Check if the MarketItem exists by verifying the price or seller\n        if (idMarketItem[tokenId].price > 0) {\n            delete idMarketItem[tokenId];  // Delete MarketItem if it exists\n            emit SellItemDeleted(tokenId); // Emit an event for market item deletion\n        } \n        \n        // Check if the Auction exists by verifying the highest bid\n        if (idAuctions[tokenId].highestBid > 0) {\n            delete idAuctions[tokenId];  // Delete Auction if it exists\n            emit AuctionDeleted(tokenId); // Emit an event for auction deletion\n        }\n    }\n\n    function updateOwner(uint256 tokenId, address payable newOwner) private {\n        myNFT storage item = idNFTs[tokenId];\n        item.owner = newOwner;\n        emit UpdateListMyNFT(tokenId, newOwner, true);\n    }\n\n    // Create a new NFT token and list it for sale\n    function createToken(string memory tokenUrl, string memory title, string memory description) public returns (uint256) {\n        _tokenIds.increment();\n        uint256 newTokenId = _tokenIds.current();\n        _mint(msg.sender, newTokenId);\n        _setTokenURI(newTokenId, tokenUrl);\n        \n        idNFTs[newTokenId] = myNFT(newTokenId, title, description, payable(msg.sender), true, tokenUrl);\n        \n        // Record the transaction history\n        transactionHistories[newTokenId].push(TransactionHistory({\n            tokenId: newTokenId,\n            action: \"create\",\n            user: msg.sender,\n            timestamp: block.timestamp\n        }));\n        \n        emit CreateListMyNFT(newTokenId, title, description, payable(msg.sender), true, tokenUrl);\n        return newTokenId;\n    }\n\n    // List NFT for sale\n    function createSell(uint256 tokenId, uint256 price) public onlyOwnerOfToken(tokenId) {\n        deleteTokenSell(tokenId);\n        showOnOrOffNFT(tokenId, true);\n        \n        _transfer(msg.sender, address(this), tokenId);\n        idMarketItem[tokenId] = MarketItem(tokenId, payable(msg.sender), price);\n        \n        transactionHistories[tokenId].push(TransactionHistory({\n            tokenId: tokenId,\n            action: \"sell\",\n            user: msg.sender,\n            timestamp: block.timestamp\n        }));\n\n        emit MarketItemCreated(tokenId, msg.sender, price);\n    }\n\n    function cancelSell(uint256 tokenId) public {\n        MarketItem storage item = idMarketItem[tokenId];\n        // Ensure the caller is the seller\n        require(item.seller == payable(msg.sender), \"Only the seller can cancel the auction.\");\n        \n        // Transfer the NFT back to the seller\n        _transfer(address(this), item.seller, tokenId);\n        transactionHistories[tokenId].push(TransactionHistory({\n            tokenId: tokenId,\n            action: \"cancelSell\",\n            user: msg.sender,\n            timestamp: block.timestamp\n        }));\n        \n        deleteTokenSell(tokenId);\n        emit AuctionFinalized(tokenId, item.seller, 0);\n    }\n\n    // Buy NFT instantly\n    function buyNFT(uint256 tokenId) public payable nonReentrant {\n        MarketItem storage item = idMarketItem[tokenId];\n        require(msg.value == item.price, \"Please submit the asking price\");\n        \n        item.seller.transfer(msg.value);\n        _transfer(address(this), msg.sender, tokenId);\n        _itemsSold.increment();\n        \n        transactionHistories[tokenId].push(TransactionHistory({\n            tokenId: tokenId,\n            action: \"buy\",\n            user: msg.sender,\n            timestamp: block.timestamp\n        }));\n        \n        deleteTokenSell(tokenId);\n        emit TokenBought(tokenId, msg.sender, item.price);\n    }\n\n    // Create an auction for an NFT\n    function createAuction(uint256 tokenId, uint256 startingPrice, uint256 startTime, uint256 endTime) public onlyOwnerOfToken(tokenId) {\n        require(startingPrice > 0, \"Starting price must be greater than zero\");\n        require(idAuctions[tokenId].tokenId == 0, \"Auction already exists for this token\");\n        \n        deleteTokenSell(tokenId);\n        idAuctions[tokenId] = Auction({\n            tokenId: tokenId,\n            seller: payable(msg.sender),\n            startingPrice: startingPrice,\n            highestBid: 0,\n            highestBidder: payable(address(0)),\n            startTime: startTime,\n            endTime: endTime\n        });\n        \n        showOnOrOffNFT(tokenId, true);\n        _transfer(msg.sender, address(this), tokenId);\n        \n        emit AuctionCreated(tokenId, address(this), tokenId, msg.sender, startingPrice, startTime, endTime);\n    }\n\n    function cancelAuction(uint256 tokenId) public {\n        Auction storage auction = idAuctions[tokenId];\n        // Ensure the caller is the seller\n        require(auction.seller == msg.sender, \"Only the seller can cancel the auction.\");\n        \n        // Check if there are no bids placed\n        require(auction.highestBid == 0, \"Cannot cancel the auction after a bid has been placed.\");\n        \n        // Transfer the NFT back to the seller\n        _transfer(address(this), auction.seller, auction.tokenId);\n        deleteTokenSell(tokenId);\n        emit AuctionFinalized(tokenId, auction.seller, 0);\n    }\n\n    // Place a bid on an auction\n    function placeBid(uint256 auctionId) public payable nonReentrant {\n        Auction storage auction = idAuctions[auctionId];\n        require(block.timestamp < auction.endTime, \"Auction has ended\");\n        require(block.timestamp > auction.startTime, \"Auction not started\");\n        require(msg.value > auction.highestBid, \"Bid must be higher than the current highest bid\");\n        require(msg.value >= auction.startingPrice, \"Bid must be at least the starting price\");\n\n        // Refund the previous highest bidder\n        if (auction.highestBidder != address(0)) {\n            auction.highestBidder.transfer(auction.highestBid);\n        }\n\n        auction.highestBid = msg.value;\n        auction.highestBidder = payable(msg.sender);\n        emit BidPlaced(auctionId, msg.sender, msg.value);\n    }\n\n    // Finalize the auction\n    function finalizeAuction(uint256 tokenId) public nonReentrant {\n        Auction storage auction = idAuctions[tokenId];\n        require(block.timestamp >= auction.endTime, \"Auction has not ended yet\");\n\n        if (auction.highestBidder != address(0)) {\n            _transfer(address(this), auction.highestBidder, auction.tokenId);\n            auction.seller.transfer(auction.highestBid);\n            emit AuctionFinalized(tokenId, auction.highestBidder, auction.highestBid);\n        } else {\n            _transfer(address(this), auction.seller, auction.tokenId);\n        }\n        deleteTokenSell(tokenId);\n    }\n\n    // Show NFT\n    function showOnOrOffNFT(uint256 tokenId, bool show) public onlyOwnerOfToken(tokenId) {\n        myNFT storage item = idNFTs[tokenId];\n        item.show = show;\n        emit UpdateListMyNFT(tokenId, item.owner, show);\n    }\n\n    // Retrieve transaction history for a specific token\n    function getTransactionHistory(uint256 tokenId) public view returns (TransactionHistory[] memory) {\n        return transactionHistories[tokenId];\n    }\n    \n    // Retrieve details of an NFT\n    function getNFTDetails(uint256 tokenId) public view returns (myNFT memory) {\n        return idNFTs[tokenId];\n    }\n\n    // Retrieve details of an auction\n    function getAuctionDetails(uint256 tokenId) public view returns (Auction memory) {\n        return idAuctions[tokenId];\n    }\n}\n",
  "sourcePath": "/home/hiep-ubuntu/Desktop/remix/MetaCoin/contracts/NFTMarketplace.sol",
  "compiler": {
    "name": "solc",
    "version": "0.8.13+commit.abaa5c0e.Emscripten.clang"
  },
  "schemaVersion": "3.4.16",
  "updatedAt": "2024-10-08T15:02:43.022Z",
  "networkType": "ethereum",
  "devdoc": {
    "kind": "dev",
    "methods": {
      "approve(address,uint256)": {
        "details": "See {IERC721-approve}."
      },
      "balanceOf(address)": {
        "details": "See {IERC721-balanceOf}."
      },
      "getApproved(uint256)": {
        "details": "See {IERC721-getApproved}."
      },
      "isApprovedForAll(address,address)": {
        "details": "See {IERC721-isApprovedForAll}."
      },
      "name()": {
        "details": "See {IERC721Metadata-name}."
      },
      "ownerOf(uint256)": {
        "details": "See {IERC721-ownerOf}."
      },
      "safeTransferFrom(address,address,uint256)": {
        "details": "See {IERC721-safeTransferFrom}."
      },
      "safeTransferFrom(address,address,uint256,bytes)": {
        "details": "See {IERC721-safeTransferFrom}."
      },
      "setApprovalForAll(address,bool)": {
        "details": "See {IERC721-setApprovalForAll}."
      },
      "supportsInterface(bytes4)": {
        "details": "See {IERC165-supportsInterface}."
      },
      "symbol()": {
        "details": "See {IERC721Metadata-symbol}."
      },
      "tokenURI(uint256)": {
        "details": "See {IERC721Metadata-tokenURI}."
      },
      "transferFrom(address,address,uint256)": {
        "details": "See {IERC721-transferFrom}."
      }
    },
    "version": 1
  },
  "userdoc": {
    "kind": "user",
    "methods": {},
    "version": 1
  }
}